{
  "_format": "hh-sol-artifact-1",
  "contractName": "HashSandFactory",
  "sourceName": "contracts/HashSandFactory.sol",
  "abi": [
    {
      "inputs": [
        {
          "internalType": "address",
          "name": "_master",
          "type": "address"
        }
      ],
      "stateMutability": "nonpayable",
      "type": "constructor"
    },
    {
      "anonymous": false,
      "inputs": [
        {
          "indexed": true,
          "internalType": "address",
          "name": "minerAddress",
          "type": "address"
        },
        {
          "indexed": true,
          "internalType": "address",
          "name": "contractAddress",
          "type": "address"
        },
        {
          "indexed": false,
          "internalType": "address",
          "name": "paymentTokenAddress",
          "type": "address"
        },
        {
          "indexed": false,
          "internalType": "address",
          "name": "collateralTokenAddress",
          "type": "address"
        },
        {
          "indexed": false,
          "internalType": "uint256",
          "name": "hashrate",
          "type": "uint256"
        },
        {
          "indexed": false,
          "internalType": "uint256",
          "name": "period",
          "type": "uint256"
        },
        {
          "indexed": false,
          "internalType": "uint256",
          "name": "reservedPrice",
          "type": "uint256"
        },
        {
          "indexed": false,
          "internalType": "uint256",
          "name": "minimumThreshold",
          "type": "uint256"
        },
        {
          "indexed": true,
          "internalType": "address",
          "name": "hashRepoAddress",
          "type": "address"
        }
      ],
      "name": "NewHashSandContract",
      "type": "event"
    },
    {
      "anonymous": false,
      "inputs": [
        {
          "indexed": true,
          "internalType": "address",
          "name": "previousOwner",
          "type": "address"
        },
        {
          "indexed": true,
          "internalType": "address",
          "name": "newOwner",
          "type": "address"
        }
      ],
      "name": "OwnershipTransferred",
      "type": "event"
    },
    {
      "inputs": [
        {
          "internalType": "address",
          "name": "_paymentToken",
          "type": "address"
        },
        {
          "internalType": "address",
          "name": "_collateralToken",
          "type": "address"
        },
        {
          "internalType": "uint256",
          "name": "_hashrate",
          "type": "uint256"
        },
        {
          "internalType": "uint256",
          "name": "_period",
          "type": "uint256"
        },
        {
          "internalType": "uint256",
          "name": "_reservedPrice",
          "type": "uint256"
        },
        {
          "internalType": "uint256",
          "name": "_minimumThreshold",
          "type": "uint256"
        },
        {
          "internalType": "address",
          "name": "_hashRepoAddress",
          "type": "address"
        }
      ],
      "name": "createHashSandContract",
      "outputs": [
        {
          "internalType": "address",
          "name": "",
          "type": "address"
        }
      ],
      "stateMutability": "payable",
      "type": "function"
    },
    {
      "inputs": [],
      "name": "master",
      "outputs": [
        {
          "internalType": "address",
          "name": "",
          "type": "address"
        }
      ],
      "stateMutability": "view",
      "type": "function"
    },
    {
      "inputs": [],
      "name": "owner",
      "outputs": [
        {
          "internalType": "address",
          "name": "",
          "type": "address"
        }
      ],
      "stateMutability": "view",
      "type": "function"
    },
    {
      "inputs": [],
      "name": "renounceOwnership",
      "outputs": [],
      "stateMutability": "nonpayable",
      "type": "function"
    },
    {
      "inputs": [
        {
          "internalType": "address",
          "name": "newOwner",
          "type": "address"
        }
      ],
      "name": "transferOwnership",
      "outputs": [],
      "stateMutability": "nonpayable",
      "type": "function"
    }
  ],
  "bytecode": "0x608060405234801561001057600080fd5b506040516105cc3803806105cc83398101604081905261002f916100b8565b61003f61003a610064565b610068565b600180546001600160a01b0319166001600160a01b03929092169190911790556100e6565b3390565b600080546001600160a01b038381166001600160a01b0319831681178455604051919092169283917f8be0079c531659141344cd1fd0a4f28419497f9722a3daafe3b4186f6b6457e09190a35050565b6000602082840312156100c9578081fd5b81516001600160a01b03811681146100df578182fd5b9392505050565b6104d7806100f56000396000f3fe60806040526004361061004a5760003560e01c8063715018a61461004f5780638da5cb5b14610066578063b8b67ae214610091578063ee97f7f3146100a4578063f2fde38b146100b9575b600080fd5b34801561005b57600080fd5b506100646100d9565b005b34801561007257600080fd5b5061007b61012d565b60405161008891906103ac565b60405180910390f35b61007b61009f366004610343565b61013c565b3480156100b057600080fd5b5061007b6101c3565b3480156100c557600080fd5b506100646100d4366004610322565b6101d2565b6100e1610243565b6001600160a01b03166100f261012d565b6001600160a01b0316146101215760405162461bcd60e51b81526004016101189061046c565b60405180910390fd5b61012b6000610247565b565b6000546001600160a01b031690565b6001546000908190610156906001600160a01b0316610297565b9050826001600160a01b0316816001600160a01b0316336001600160a01b03167f46677ebc55df9cfc3fff1a5eafee8cfea4b039c08ef587f24878e206c372dd598c8c8c8c8c8c6040516101af969594939291906103c0565b60405180910390a498975050505050505050565b6001546001600160a01b031681565b6101da610243565b6001600160a01b03166101eb61012d565b6001600160a01b0316146102115760405162461bcd60e51b81526004016101189061046c565b6001600160a01b0381166102375760405162461bcd60e51b8152600401610118906103f6565b61024081610247565b50565b3390565b600080546001600160a01b038381166001600160a01b0319831681178455604051919092169283917f8be0079c531659141344cd1fd0a4f28419497f9722a3daafe3b4186f6b6457e09190a35050565b6000604051733d602d80600a3d3981f3363d3d373d3d3d363d7360601b81528260601b60148201526e5af43d82803e903d91602b57fd5bf360881b60288201526037816000f09150506001600160a01b0381166103065760405162461bcd60e51b81526004016101189061043c565b919050565b80356001600160a01b038116811461030657600080fd5b600060208284031215610333578081fd5b61033c8261030b565b9392505050565b600080600080600080600060e0888a03121561035d578283fd5b6103668861030b565b96506103746020890161030b565b955060408801359450606088013593506080880135925060a0880135915061039e60c0890161030b565b905092959891949750929550565b6001600160a01b0391909116815260200190565b6001600160a01b03968716815294909516602085015260408401929092526060830152608082015260a081019190915260c00190565b60208082526026908201527f4f776e61626c653a206e6577206f776e657220697320746865207a65726f206160408201526564647265737360d01b606082015260800190565b602080825260169082015275115490cc4c4d8dce8818dc99585d194819985a5b195960521b604082015260600190565b6020808252818101527f4f776e61626c653a2063616c6c6572206973206e6f7420746865206f776e657260408201526060019056fea264697066735822122058d4cdcd4f697352e7007fae22a41b761489a8c493fa51fe4655a687958d32d764736f6c63430008000033",
  "linkReferences": {},
  "deployedLinkReferences": {}
}