{
  "_format": "hh-sol-artifact-1",
  "contractName": "HashRepoFactory",
  "sourceName": "contracts/HashRepoFactory.sol",
  "abi": [
    {
      "inputs": [
        {
          "internalType": "address",
          "name": "_masterNative",
          "type": "address"
        },
        {
          "internalType": "address",
          "name": "_masterERC20",
          "type": "address"
        }
      ],
      "stateMutability": "nonpayable",
      "type": "constructor"
    },
    {
      "anonymous": false,
      "inputs": [
        {
          "indexed": true,
          "internalType": "address",
          "name": "minerAddress",
          "type": "address"
        },
        {
          "indexed": true,
          "internalType": "address",
          "name": "contractAddress",
          "type": "address"
        },
        {
          "indexed": false,
          "internalType": "string",
          "name": "minerId",
          "type": "string"
        },
        {
          "indexed": false,
          "internalType": "string",
          "name": "miningPool",
          "type": "string"
        },
        {
          "indexed": false,
          "internalType": "address",
          "name": "erc20TokenAddress",
          "type": "address"
        }
      ],
      "name": "NewHashRepo",
      "type": "event"
    },
    {
      "anonymous": false,
      "inputs": [
        {
          "indexed": true,
          "internalType": "address",
          "name": "previousOwner",
          "type": "address"
        },
        {
          "indexed": true,
          "internalType": "address",
          "name": "newOwner",
          "type": "address"
        }
      ],
      "name": "OwnershipTransferred",
      "type": "event"
    },
    {
      "inputs": [
        {
          "internalType": "string",
          "name": "minerId",
          "type": "string"
        },
        {
          "internalType": "string",
          "name": "miningPool",
          "type": "string"
        },
        {
          "internalType": "address",
          "name": "erc20TokenAddress",
          "type": "address"
        }
      ],
      "name": "createHashRepo",
      "outputs": [
        {
          "internalType": "address",
          "name": "",
          "type": "address"
        }
      ],
      "stateMutability": "nonpayable",
      "type": "function"
    },
    {
      "inputs": [
        {
          "internalType": "address",
          "name": "minerAddress",
          "type": "address"
        },
        {
          "internalType": "string",
          "name": "minerId",
          "type": "string"
        },
        {
          "internalType": "string",
          "name": "miningPool",
          "type": "string"
        },
        {
          "internalType": "address",
          "name": "erc20TokenAddress",
          "type": "address"
        }
      ],
      "name": "getDeterministicAddress",
      "outputs": [
        {
          "internalType": "address",
          "name": "",
          "type": "address"
        }
      ],
      "stateMutability": "view",
      "type": "function"
    },
    {
      "inputs": [],
      "name": "masterERC20",
      "outputs": [
        {
          "internalType": "address",
          "name": "",
          "type": "address"
        }
      ],
      "stateMutability": "view",
      "type": "function"
    },
    {
      "inputs": [],
      "name": "masterNative",
      "outputs": [
        {
          "internalType": "address",
          "name": "",
          "type": "address"
        }
      ],
      "stateMutability": "view",
      "type": "function"
    },
    {
      "inputs": [],
      "name": "owner",
      "outputs": [
        {
          "internalType": "address",
          "name": "",
          "type": "address"
        }
      ],
      "stateMutability": "view",
      "type": "function"
    },
    {
      "inputs": [],
      "name": "renounceOwnership",
      "outputs": [],
      "stateMutability": "nonpayable",
      "type": "function"
    },
    {
      "inputs": [
        {
          "internalType": "address",
          "name": "newOwner",
          "type": "address"
        }
      ],
      "name": "transferOwnership",
      "outputs": [],
      "stateMutability": "nonpayable",
      "type": "function"
    }
  ],
  "bytecode": "0x608060405234801561001057600080fd5b5060405161097238038061097283398101604081905261002f916100e0565b61003f61003a610070565b610074565b600180546001600160a01b039384166001600160a01b03199182161790915560028054929093169116179055610112565b3390565b600080546001600160a01b038381166001600160a01b0319831681178455604051919092169283917f8be0079c531659141344cd1fd0a4f28419497f9722a3daafe3b4186f6b6457e09190a35050565b80516001600160a01b03811681146100db57600080fd5b919050565b600080604083850312156100f2578182fd5b6100fb836100c4565b9150610109602084016100c4565b90509250929050565b610851806101216000396000f3fe608060405234801561001057600080fd5b506004361061007d5760003560e01c80638da5cb5b1161005b5780638da5cb5b146100bd578063aa713fe4146100c5578063d1d8756c146100d8578063f2fde38b146100e05761007d565b806315bfe3a914610082578063635ea63d146100a0578063715018a6146100b3575b600080fd5b61008a6100f3565b604051610097919061068c565b60405180910390f35b61008a6100ae36600461054e565b610102565b6100bb6101b3565b005b61008a6101fe565b61008a6100d33660046105d0565b61020d565b61008a6102df565b6100bb6100ee366004610534565b6102ee565b6002546001600160a01b031681565b6000808585858560405160200161011c94939291906106a0565b60408051601f198184030181529190528051602090910120905060006001600160a01b03841661015857506001546001600160a01b0316610166565b506002546001600160a01b03165b6001600160a01b0381166101955760405162461bcd60e51b815260040161018c906107a4565b60405180910390fd5b6101a86001600160a01b0382168361035f565b979650505050505050565b6101bb610375565b6001600160a01b03166101cc6101fe565b6001600160a01b0316146101f25760405162461bcd60e51b815260040161018c906107d0565b6101fc6000610379565b565b6000546001600160a01b031690565b6000803385858560405160200161022794939291906106a0565b60408051601f198184030181529190528051602090910120905060006001600160a01b03841661026e57600154610267906001600160a01b0316836103c9565b9050610287565b600254610284906001600160a01b0316836103c9565b90505b806001600160a01b0316336001600160a01b03167f0baad3188ca409229583b62d8feec90ce55d10d47517a067a7436ad050df00ef8888886040516102ce939291906106e9565b60405180910390a395945050505050565b6001546001600160a01b031681565b6102f6610375565b6001600160a01b03166103076101fe565b6001600160a01b03161461032d5760405162461bcd60e51b815260040161018c906107d0565b6001600160a01b0381166103535760405162461bcd60e51b815260040161018c90610727565b61035c81610379565b50565b600061036c838330610439565b90505b92915050565b3390565b600080546001600160a01b038381166001600160a01b0319831681178455604051919092169283917f8be0079c531659141344cd1fd0a4f28419497f9722a3daafe3b4186f6b6457e09190a35050565b6000604051733d602d80600a3d3981f3363d3d373d3d3d363d7360601b81528360601b60148201526e5af43d82803e903d91602b57fd5bf360881b6028820152826037826000f59150506001600160a01b03811661036f5760405162461bcd60e51b815260040161018c9061076d565b604051733d602d80600a3d3981f3363d3d373d3d3d363d7360601b8152606093841b60148201526f5af43d82803e903d91602b57fd5bf3ff60801b6028820152921b6038830152604c8201526037808220606c830152605591012090565b80356001600160a01b03811681146104ae57600080fd5b919050565b600082601f8301126104c3578081fd5b813567ffffffffffffffff808211156104de576104de610805565b604051601f8301601f19168101602001828111828210171561050257610502610805565b604052828152848301602001861015610519578384fd5b82602086016020830137918201602001929092529392505050565b600060208284031215610545578081fd5b61036c82610497565b60008060008060808587031215610563578283fd5b61056c85610497565b9350602085013567ffffffffffffffff80821115610588578485fd5b610594888389016104b3565b945060408701359150808211156105a9578384fd5b506105b6878288016104b3565b9250506105c560608601610497565b905092959194509250565b6000806000606084860312156105e4578283fd5b833567ffffffffffffffff808211156105fb578485fd5b610607878388016104b3565b9450602086013591508082111561061c578384fd5b50610629868287016104b3565b92505061063860408501610497565b90509250925092565b60008151808452815b818110156106665760208185018101518683018201520161064a565b818111156106775782602083870101525b50601f01601f19169290920160200192915050565b6001600160a01b0391909116815260200190565b600060018060a01b038087168352608060208401526106c26080840187610641565b83810360408501526106d48187610641565b92505080841660608401525095945050505050565b6000606082526106fc6060830186610641565b828103602084015261070e8186610641565b91505060018060a01b0383166040830152949350505050565b60208082526026908201527f4f776e61626c653a206e6577206f776e657220697320746865207a65726f206160408201526564647265737360d01b606082015260800190565b60208082526017908201527f455243313136373a2063726561746532206661696c6564000000000000000000604082015260600190565b6020808252601290820152711b585cdd195c881b5d5cdd081899481cd95d60721b604082015260600190565b6020808252818101527f4f776e61626c653a2063616c6c6572206973206e6f7420746865206f776e6572604082015260600190565b634e487b7160e01b600052604160045260246000fdfea26469706673582212201a58b3b372c66e80a3bed00d823f8fd35f5cb0ceaecc6d4455c53a66e59096be64736f6c63430008000033",
  "linkReferences": {},
  "deployedLinkReferences": {}
}