{
  "_format": "hh-sol-artifact-1",
  "contractName": "HashSandFactory",
  "sourceName": "contracts/HashSandFactory.sol",
  "abi": [
    {
      "inputs": [
        {
          "internalType": "address",
          "name": "_master",
          "type": "address"
        }
      ],
      "stateMutability": "nonpayable",
      "type": "constructor"
    },
    {
      "anonymous": false,
      "inputs": [
        {
          "indexed": true,
          "internalType": "address",
          "name": "contractAddress",
          "type": "address"
        }
      ],
      "name": "NewHashSandContract",
      "type": "event"
    },
    {
      "anonymous": false,
      "inputs": [
        {
          "indexed": true,
          "internalType": "address",
          "name": "previousOwner",
          "type": "address"
        },
        {
          "indexed": true,
          "internalType": "address",
          "name": "newOwner",
          "type": "address"
        }
      ],
      "name": "OwnershipTransferred",
      "type": "event"
    },
    {
      "inputs": [
        {
          "internalType": "address",
          "name": "seller",
          "type": "address"
        },
        {
          "internalType": "uint256",
          "name": "salt",
          "type": "uint256"
        }
      ],
      "name": "createHashSandContract",
      "outputs": [
        {
          "internalType": "address",
          "name": "",
          "type": "address"
        }
      ],
      "stateMutability": "payable",
      "type": "function"
    },
    {
      "inputs": [
        {
          "internalType": "address",
          "name": "seller",
          "type": "address"
        },
        {
          "internalType": "uint256",
          "name": "salt",
          "type": "uint256"
        }
      ],
      "name": "getHashSandAddress",
      "outputs": [
        {
          "internalType": "address",
          "name": "",
          "type": "address"
        }
      ],
      "stateMutability": "view",
      "type": "function"
    },
    {
      "inputs": [],
      "name": "master",
      "outputs": [
        {
          "internalType": "address",
          "name": "",
          "type": "address"
        }
      ],
      "stateMutability": "view",
      "type": "function"
    },
    {
      "inputs": [],
      "name": "owner",
      "outputs": [
        {
          "internalType": "address",
          "name": "",
          "type": "address"
        }
      ],
      "stateMutability": "view",
      "type": "function"
    },
    {
      "inputs": [],
      "name": "renounceOwnership",
      "outputs": [],
      "stateMutability": "nonpayable",
      "type": "function"
    },
    {
      "inputs": [
        {
          "internalType": "address",
          "name": "newOwner",
          "type": "address"
        }
      ],
      "name": "transferOwnership",
      "outputs": [],
      "stateMutability": "nonpayable",
      "type": "function"
    }
  ],
  "bytecode": "0x608060405234801561001057600080fd5b506040516106e13803806106e183398101604081905261002f916100ac565b60006100396100a8565b600080546001600160a01b0319166001600160a01b0383169081178255604051929350917f8be0079c531659141344cd1fd0a4f28419497f9722a3daafe3b4186f6b6457e0908290a350600180546001600160a01b0319166001600160a01b03929092169190911790556100da565b3390565b6000602082840312156100bd578081fd5b81516001600160a01b03811681146100d3578182fd5b9392505050565b6105f8806100e96000396000f3fe6080604052600436106100555760003560e01c8063715018a61461005a57806383bbf853146100715780638c87eb63146100a75780638da5cb5b146100ba578063ee97f7f3146100cf578063f2fde38b146100e4575b600080fd5b34801561006657600080fd5b5061006f610104565b005b34801561007d57600080fd5b5061009161008c366004610494565b610196565b60405161009e91906104bd565b60405180910390f35b6100916100b5366004610494565b610211565b3480156100c657600080fd5b5061009161029a565b3480156100db57600080fd5b506100916102a9565b3480156100f057600080fd5b5061006f6100ff36600461047a565b6102b8565b61010c610378565b6001600160a01b031661011d61029a565b6001600160a01b03161461014c5760405162461bcd60e51b81526004016101439061058d565b60405180910390fd5b600080546040516001600160a01b03909116907f8be0079c531659141344cd1fd0a4f28419497f9722a3daafe3b4186f6b6457e0908390a3600080546001600160a01b0319169055565b6001546000906001600160a01b03166101c15760405162461bcd60e51b815260040161014390610561565b600083836040516020016101d69291906104d1565b60408051601f198184030181529190528051602090910120600154909150610207906001600160a01b03168261037c565b9150505b92915050565b60008083836040516020016102279291906104d1565b60408051601f19818403018152919052805160209091012060015490915060009061025b906001600160a01b031683610390565b6040519091506001600160a01b038216907fdccf039161944cd687d317090fe16a8ec00283db0859eb0b374db90066364b9a90600090a2949350505050565b6000546001600160a01b031690565b6001546001600160a01b031681565b6102c0610378565b6001600160a01b03166102d161029a565b6001600160a01b0316146102f75760405162461bcd60e51b81526004016101439061058d565b6001600160a01b03811661031d5760405162461bcd60e51b8152600401610143906104ea565b600080546040516001600160a01b03808516939216917f8be0079c531659141344cd1fd0a4f28419497f9722a3daafe3b4186f6b6457e091a3600080546001600160a01b0319166001600160a01b0392909216919091179055565b3390565b6000610389838330610400565b9392505050565b6000604051733d602d80600a3d3981f3363d3d373d3d3d363d7360601b81528360601b60148201526e5af43d82803e903d91602b57fd5bf360881b6028820152826037826000f59150506001600160a01b03811661020b5760405162461bcd60e51b815260040161014390610530565b604051733d602d80600a3d3981f3363d3d373d3d3d363d7360601b8152606093841b60148201526f5af43d82803e903d91602b57fd5bf3ff60801b6028820152921b6038830152604c8201526037808220606c830152605591012090565b80356001600160a01b038116811461047557600080fd5b919050565b60006020828403121561048b578081fd5b6103898261045e565b600080604083850312156104a6578081fd5b6104af8361045e565b946020939093013593505050565b6001600160a01b0391909116815260200190565b6001600160a01b03929092168252602082015260400190565b60208082526026908201527f4f776e61626c653a206e6577206f776e657220697320746865207a65726f206160408201526564647265737360d01b606082015260800190565b602080825260179082015276115490cc4c4d8dce8818dc99585d194c8819985a5b1959604a1b604082015260600190565b6020808252601290820152711b585cdd195c881b5d5cdd081899481cd95d60721b604082015260600190565b6020808252818101527f4f776e61626c653a2063616c6c6572206973206e6f7420746865206f776e657260408201526060019056fea2646970667358221220912e7ad3f0be02878181680928097d43a3d6c0726b63ee6cba8844d694b8c27264736f6c63430008000033",
  "linkReferences": {},
  "deployedLinkReferences": {}
}