{
  "_format": "hh-sol-artifact-1",
  "contractName": "Oracle",
  "sourceName": "contracts/Oracle.sol",
  "abi": [
    {
      "inputs": [
        {
          "internalType": "string",
          "name": "_miningPool",
          "type": "string"
        }
      ],
      "stateMutability": "nonpayable",
      "type": "constructor"
    },
    {
      "anonymous": false,
      "inputs": [
        {
          "indexed": false,
          "internalType": "address",
          "name": "sands",
          "type": "address"
        },
        {
          "indexed": false,
          "internalType": "uint256",
          "name": "due",
          "type": "uint256"
        },
        {
          "indexed": false,
          "internalType": "uint256",
          "name": "lastDueFulfilled",
          "type": "uint256"
        },
        {
          "indexed": false,
          "internalType": "uint256",
          "name": "balance",
          "type": "uint256"
        },
        {
          "indexed": false,
          "internalType": "uint256",
          "name": "updated",
          "type": "uint256"
        },
        {
          "indexed": false,
          "internalType": "uint256",
          "name": "minerHashrate",
          "type": "uint256"
        },
        {
          "indexed": false,
          "internalType": "uint256",
          "name": "minerReward",
          "type": "uint256"
        },
        {
          "indexed": false,
          "internalType": "uint256",
          "name": "poolHashrate",
          "type": "uint256"
        },
        {
          "indexed": false,
          "internalType": "uint256",
          "name": "poolReward",
          "type": "uint256"
        },
        {
          "indexed": false,
          "internalType": "uint8",
          "name": "day",
          "type": "uint8"
        },
        {
          "indexed": false,
          "internalType": "bool",
          "name": "defaulted",
          "type": "bool"
        }
      ],
      "name": "MinerStatsUpdated",
      "type": "event"
    },
    {
      "inputs": [
        {
          "internalType": "address",
          "name": "sands",
          "type": "address"
        }
      ],
      "name": "getStats",
      "outputs": [
        {
          "internalType": "uint256",
          "name": "due",
          "type": "uint256"
        },
        {
          "internalType": "uint256",
          "name": "lastDueFulfilled",
          "type": "uint256"
        },
        {
          "internalType": "uint64",
          "name": "day",
          "type": "uint64"
        },
        {
          "internalType": "bool",
          "name": "defaulted",
          "type": "bool"
        }
      ],
      "stateMutability": "view",
      "type": "function"
    },
    {
      "inputs": [
        {
          "internalType": "address",
          "name": "",
          "type": "address"
        }
      ],
      "name": "miner",
      "outputs": [
        {
          "internalType": "address",
          "name": "sands",
          "type": "address"
        },
        {
          "internalType": "uint256",
          "name": "due",
          "type": "uint256"
        },
        {
          "internalType": "uint256",
          "name": "lastDueFulfilled",
          "type": "uint256"
        },
        {
          "internalType": "uint256",
          "name": "updated",
          "type": "uint256"
        },
        {
          "internalType": "uint8",
          "name": "day",
          "type": "uint8"
        },
        {
          "internalType": "bool",
          "name": "defaulted",
          "type": "bool"
        }
      ],
      "stateMutability": "view",
      "type": "function"
    },
    {
      "inputs": [],
      "name": "miningPool",
      "outputs": [
        {
          "internalType": "string",
          "name": "",
          "type": "string"
        }
      ],
      "stateMutability": "view",
      "type": "function"
    },
    {
      "inputs": [],
      "name": "owner",
      "outputs": [
        {
          "internalType": "address",
          "name": "",
          "type": "address"
        }
      ],
      "stateMutability": "view",
      "type": "function"
    },
    {
      "inputs": [
        {
          "internalType": "address",
          "name": "sands",
          "type": "address"
        },
        {
          "internalType": "uint256",
          "name": "minerHashrate",
          "type": "uint256"
        },
        {
          "internalType": "uint256",
          "name": "minerReward",
          "type": "uint256"
        },
        {
          "internalType": "uint256",
          "name": "poolHashrate",
          "type": "uint256"
        },
        {
          "internalType": "uint256",
          "name": "poolReward",
          "type": "uint256"
        }
      ],
      "name": "updateMinerStats",
      "outputs": [
        {
          "internalType": "bool",
          "name": "success",
          "type": "bool"
        }
      ],
      "stateMutability": "nonpayable",
      "type": "function"
    }
  ],
  "bytecode": "0x60806040523480156200001157600080fd5b50604051620010df380380620010df833981016040819052620000349162000109565b80516200004990600190602084019062000063565b5050600080546001600160a01b031916331790556200022b565b8280546200007190620001d8565b90600052602060002090601f016020900481019282620000955760008555620000e0565b82601f10620000b057805160ff1916838001178555620000e0565b82800160010185558215620000e0579182015b82811115620000e0578251825591602001919060010190620000c3565b50620000ee929150620000f2565b5090565b5b80821115620000ee5760008155600101620000f3565b600060208083850312156200011c578182fd5b82516001600160401b038082111562000133578384fd5b818501915085601f83011262000147578384fd5b8151818111156200015c576200015c62000215565b604051601f8201601f191681018501838111828210171562000182576200018262000215565b604052818152838201850188101562000199578586fd5b8592505b81831015620001bc57838301850151818401860152918401916200019d565b81831115620001cd57858583830101525b979650505050505050565b600281046001821680620001ed57607f821691505b602082108114156200020f57634e487b7160e01b600052602260045260246000fd5b50919050565b634e487b7160e01b600052604160045260246000fd5b610ea4806200023b6000396000f3fe608060405234801561001057600080fd5b50600436106100575760003560e01c8063733975971461005c5780638da5cb5b1461007a578063c23f85d61461008f578063d45a7e2e146100b2578063fe80f19a146100d7575b600080fd5b6100646100f7565b6040516100719190610ab0565b60405180910390f35b610082610185565b60405161007191906109fb565b6100a261009d366004610988565b610194565b6040516100719493929190610c3f565b6100c56100c0366004610988565b610255565b60405161007196959493929190610a6d565b6100ea6100e53660046109a2565b61029a565b6040516100719190610aa5565b6001805461010490610e07565b80601f016020809104026020016040519081016040528092919081815260200182805461013090610e07565b801561017d5780601f106101525761010080835404028352916020019161017d565b820191906000526020600020905b81548152906001019060200180831161016057829003601f168201915b505050505081565b6000546001600160a01b031681565b6001600160a01b038082166000908152600260208181526040808420815160c08101835281549096168652600181015492860192909252918101549184019190915260038101546060840181905260049091015460ff808216608086015261010090910416151560a0840152909182918291829161022d5760405162461bcd60e51b815260040161022490610c10565b60405180910390fd5b60208101516040820151608083015160a090930151919890975060ff90921695509350915050565b6002602081905260009182526040909120805460018201549282015460038301546004909301546001600160a01b039092169392909160ff8082169161010090041686565b600080546001600160a01b031633146102c55760405162461bcd60e51b815260040161022490610b86565b6001600160a01b03808716600090815260026020818152604092839020835160c08101855281549095168552600181015491850191909152908101549183019190915260038101546060830181905260049091015460ff808216608085015261010090910416151560a0830152156103c9576000808061035061034b6201518042610d12565b6107cd565b925092509250600080600061037162015180886060015161034b9190610d12565b925092509250818514806103855750818514155b80156103915750808414155b80156103a65750828614806103a65750828614155b6103c25760405162461bcd60e51b815260040161022490610bbd565b5050505050505b866001600160a01b031663ef78d4fd6040518163ffffffff1660e01b815260040160206040518083038186803b15801561040257600080fd5b505afa158015610416573d6000803e3d6000fd5b505050506040513d601f19601f8201168201806040525081019061043a91906109e3565b816080015160ff16106105d057866001600160a01b031631816020015111156104ea57600160a082018181526001600160a01b03898116600090815260026020818152604092839020875181546001600160a01b03191695169490941784558601518386015590850151908201556060840151600382015560809093015160049093018054915160ff1990921660ff9094169390931761ff001916610100911515919091021790915590506107c4565b8060200151876001600160a01b031631106105b857600060a08201526080810151610516906001610cbf565b60ff908116608083019081526020808401805160408087019182526001600160a01b038d8116600090815260029586905291909120875181546001600160a01b031916921691909117815591516001808401919091559051928201929092556060850151600382015591516004909201805460a09095015160ff19909516929093169190911761ff0019166101009315159390930292909217905590506107c4565b60405162461bcd60e51b815260040161022490610b35565b8060a00151156105f25760405162461bcd60e51b815260040161022490610b03565b866001600160a01b0316318160200151111561061457600160a08201526106f3565b600080886001600160a01b03166369b0f56e6040518163ffffffff1660e01b815260040160206040518083038186803b15801561065057600080fd5b505afa158015610664573d6000803e3d6000fd5b505050506040513d601f19601f8201168201806040525081019061068891906109e3565b90508088106106ac576106a58861069f838a610941565b90610954565b91506106bd565b6106ba8661069f8388610941565b91505b6020830151604084018190526106d39083610960565b602084015260808301516106e8906001610cbf565b60ff16608084015250505b42606082018181526001600160a01b03898116600081815260026020818152604092839020885181546001600160a01b031916961695909517855587015160018501819055828801519185018290559451600385015560808701516004909401805460a089015160ff1990911660ff87161761ff001916610100821515021790915591517f717f58699f8365f4dcc9d701b9e22082d260b8fd71dd11f956ae7a274b28d043966107b6968f969095939493319391928f928f928f928f9290610a0f565b60405180910390a160019150505b95945050505050565b60008080838162253d8c6107e48362010bd9610c66565b6107ee9190610c66565b9050600062023ab1610801836004610d26565b61080b9190610ce4565b9050600461081c8262023ab1610d26565b610827906003610c66565b6108319190610ce4565b61083b9083610dc8565b9150600062164b0961084e846001610c66565b61085a90610fa0610d26565b6108649190610ce4565b90506004610874826105b5610d26565b61087e9190610ce4565b6108889084610dc8565b61089390601f610c66565b9250600061098f6108a5856050610d26565b6108af9190610ce4565b9050600060506108c18361098f610d26565b6108cb9190610ce4565b6108d59086610dc8565b90506108e2600b83610ce4565b94506108ef85600c610d26565b6108fa836002610c66565b6109049190610dc8565b91508483610913603187610dc8565b61091e906064610d26565b6109289190610c66565b6109329190610c66565b9a919950975095505050505050565b600061094d8284610da9565b9392505050565b600061094d8284610d12565b600061094d8284610ca7565b80356001600160a01b038116811461098357600080fd5b919050565b600060208284031215610999578081fd5b61094d8261096c565b600080600080600060a086880312156109b9578081fd5b6109c28661096c565b97602087013597506040870135966060810135965060800135945092505050565b6000602082840312156109f4578081fd5b5051919050565b6001600160a01b0391909116815260200190565b6001600160a01b039b909b168b5260208b019990995260408a01979097526060890195909552608088019390935260a087019190915260c086015260e085015261010084015260ff1661012083015215156101408201526101600190565b6001600160a01b0396909616865260208601949094526040850192909252606084015260ff166080830152151560a082015260c00190565b901515815260200190565b6000602080835283518082850152825b81811015610adc57858101830151858201604001528201610ac0565b81811115610aed5783604083870101525b50601f01601f1916929092016040019392505050565b60208082526018908201527714d85b991cc8185b1c9958591e481bdb88191959985d5b1d60421b604082015260600190565b60208082526031908201527f43616e6e6f7420757064617465206f7261636c652c2074686520636f6e7472616040820152706374206973206e6f742072756e6e696e6760781b606082015260800190565b6020808252601c908201527f43616e6e6f74206578656375746520746869732066756e6374696f6e00000000604082015260600190565b60208082526033908201527f43616e6e6f742075706461746520746865204d696e6572205374617473207477604082015272696365206f6e207468652073616d652064617960681b606082015260800190565b602080825260159082015274135a5b995c881cdd185d1cc81b9bdd08199bdd5b99605a1b604082015260600190565b938452602084019290925267ffffffffffffffff1660408301521515606082015260800190565b600080821280156001600160ff1b0384900385131615610c8857610c88610e42565b600160ff1b8390038412811615610ca157610ca1610e42565b50500190565b60008219821115610cba57610cba610e42565b500190565b600060ff821660ff84168060ff03821115610cdc57610cdc610e42565b019392505050565b600082610cf357610cf3610e58565b600160ff1b821460001984141615610d0d57610d0d610e42565b500590565b600082610d2157610d21610e58565b500490565b60006001600160ff1b0381841382841380821686840486111615610d4c57610d4c610e42565b600160ff1b84871282811687830589121615610d6a57610d6a610e42565b858712925087820587128484161615610d8557610d85610e42565b87850587128184161615610d9b57610d9b610e42565b505050929093029392505050565b6000816000190483118215151615610dc357610dc3610e42565b500290565b60008083128015600160ff1b850184121615610de657610de6610e42565b6001600160ff1b0384018313811615610e0157610e01610e42565b50500390565b600281046001821680610e1b57607f821691505b60208210811415610e3c57634e487b7160e01b600052602260045260246000fd5b50919050565b634e487b7160e01b600052601160045260246000fd5b634e487b7160e01b600052601260045260246000fdfea2646970667358221220ebdababb7a3f56eb45ca9f43ec8a77cd77637370810fdbf046b887da7b491f9464736f6c63430008000033",
  "linkReferences": {},
  "deployedLinkReferences": {}
}