{
  "_format": "hh-sol-artifact-1",
  "contractName": "Oracle",
  "sourceName": "contracts/Oracle.sol",
  "abi": [
    {
      "inputs": [
        {
          "internalType": "string",
          "name": "_name",
          "type": "string"
        }
      ],
      "stateMutability": "nonpayable",
      "type": "constructor"
    },
    {
      "anonymous": false,
      "inputs": [
        {
          "indexed": true,
          "internalType": "address",
          "name": "caller",
          "type": "address"
        },
        {
          "indexed": true,
          "internalType": "uint256",
          "name": "referenceDay",
          "type": "uint256"
        },
        {
          "indexed": true,
          "internalType": "uint256",
          "name": "referenceBlock",
          "type": "uint256"
        },
        {
          "indexed": false,
          "internalType": "uint256",
          "name": "hashrate",
          "type": "uint256"
        },
        {
          "indexed": false,
          "internalType": "uint256",
          "name": "reward",
          "type": "uint256"
        },
        {
          "indexed": false,
          "internalType": "uint256",
          "name": "fees",
          "type": "uint256"
        },
        {
          "indexed": false,
          "internalType": "uint256",
          "name": "difficulty",
          "type": "uint256"
        },
        {
          "indexed": false,
          "internalType": "uint256",
          "name": "timestamp",
          "type": "uint256"
        }
      ],
      "name": "OracleUpdate",
      "type": "event"
    },
    {
      "anonymous": false,
      "inputs": [
        {
          "indexed": true,
          "internalType": "bytes32",
          "name": "role",
          "type": "bytes32"
        },
        {
          "indexed": true,
          "internalType": "bytes32",
          "name": "previousAdminRole",
          "type": "bytes32"
        },
        {
          "indexed": true,
          "internalType": "bytes32",
          "name": "newAdminRole",
          "type": "bytes32"
        }
      ],
      "name": "RoleAdminChanged",
      "type": "event"
    },
    {
      "anonymous": false,
      "inputs": [
        {
          "indexed": true,
          "internalType": "bytes32",
          "name": "role",
          "type": "bytes32"
        },
        {
          "indexed": true,
          "internalType": "address",
          "name": "account",
          "type": "address"
        },
        {
          "indexed": true,
          "internalType": "address",
          "name": "sender",
          "type": "address"
        }
      ],
      "name": "RoleGranted",
      "type": "event"
    },
    {
      "anonymous": false,
      "inputs": [
        {
          "indexed": true,
          "internalType": "bytes32",
          "name": "role",
          "type": "bytes32"
        },
        {
          "indexed": true,
          "internalType": "address",
          "name": "account",
          "type": "address"
        },
        {
          "indexed": true,
          "internalType": "address",
          "name": "sender",
          "type": "address"
        }
      ],
      "name": "RoleRevoked",
      "type": "event"
    },
    {
      "inputs": [],
      "name": "DEFAULT_ADMIN_ROLE",
      "outputs": [
        {
          "internalType": "bytes32",
          "name": "",
          "type": "bytes32"
        }
      ],
      "stateMutability": "view",
      "type": "function"
    },
    {
      "inputs": [],
      "name": "PUBLISHER_ROLE",
      "outputs": [
        {
          "internalType": "bytes32",
          "name": "",
          "type": "bytes32"
        }
      ],
      "stateMutability": "view",
      "type": "function"
    },
    {
      "inputs": [
        {
          "internalType": "uint256",
          "name": "_referenceDay",
          "type": "uint256"
        }
      ],
      "name": "get",
      "outputs": [
        {
          "internalType": "uint256",
          "name": "referenceDay",
          "type": "uint256"
        },
        {
          "internalType": "uint256",
          "name": "referenceBlock",
          "type": "uint256"
        },
        {
          "internalType": "uint256",
          "name": "hashrate",
          "type": "uint256"
        },
        {
          "internalType": "uint256",
          "name": "reward",
          "type": "uint256"
        },
        {
          "internalType": "uint256",
          "name": "fees",
          "type": "uint256"
        },
        {
          "internalType": "uint256",
          "name": "difficulty",
          "type": "uint256"
        },
        {
          "internalType": "uint256",
          "name": "timestamp",
          "type": "uint256"
        }
      ],
      "stateMutability": "view",
      "type": "function"
    },
    {
      "inputs": [
        {
          "internalType": "bytes32",
          "name": "role",
          "type": "bytes32"
        }
      ],
      "name": "getRoleAdmin",
      "outputs": [
        {
          "internalType": "bytes32",
          "name": "",
          "type": "bytes32"
        }
      ],
      "stateMutability": "view",
      "type": "function"
    },
    {
      "inputs": [
        {
          "internalType": "bytes32",
          "name": "role",
          "type": "bytes32"
        },
        {
          "internalType": "address",
          "name": "account",
          "type": "address"
        }
      ],
      "name": "grantRole",
      "outputs": [],
      "stateMutability": "nonpayable",
      "type": "function"
    },
    {
      "inputs": [
        {
          "internalType": "bytes32",
          "name": "role",
          "type": "bytes32"
        },
        {
          "internalType": "address",
          "name": "account",
          "type": "address"
        }
      ],
      "name": "hasRole",
      "outputs": [
        {
          "internalType": "bool",
          "name": "",
          "type": "bool"
        }
      ],
      "stateMutability": "view",
      "type": "function"
    },
    {
      "inputs": [
        {
          "internalType": "uint256",
          "name": "",
          "type": "uint256"
        }
      ],
      "name": "index",
      "outputs": [
        {
          "internalType": "uint256",
          "name": "referenceBlock",
          "type": "uint256"
        },
        {
          "internalType": "uint256",
          "name": "hashrate",
          "type": "uint256"
        },
        {
          "internalType": "uint256",
          "name": "reward",
          "type": "uint256"
        },
        {
          "internalType": "uint256",
          "name": "fees",
          "type": "uint256"
        },
        {
          "internalType": "uint256",
          "name": "difficulty",
          "type": "uint256"
        },
        {
          "internalType": "uint256",
          "name": "timestamp",
          "type": "uint256"
        }
      ],
      "stateMutability": "view",
      "type": "function"
    },
    {
      "inputs": [
        {
          "internalType": "uint256",
          "name": "_referenceDay",
          "type": "uint256"
        }
      ],
      "name": "isDayIndexed",
      "outputs": [
        {
          "internalType": "bool",
          "name": "",
          "type": "bool"
        }
      ],
      "stateMutability": "view",
      "type": "function"
    },
    {
      "inputs": [],
      "name": "lastReferenceDay",
      "outputs": [
        {
          "internalType": "uint256",
          "name": "",
          "type": "uint256"
        }
      ],
      "stateMutability": "view",
      "type": "function"
    },
    {
      "inputs": [],
      "name": "name",
      "outputs": [
        {
          "internalType": "string",
          "name": "",
          "type": "string"
        }
      ],
      "stateMutability": "view",
      "type": "function"
    },
    {
      "inputs": [
        {
          "internalType": "bytes32",
          "name": "role",
          "type": "bytes32"
        },
        {
          "internalType": "address",
          "name": "account",
          "type": "address"
        }
      ],
      "name": "renounceRole",
      "outputs": [],
      "stateMutability": "nonpayable",
      "type": "function"
    },
    {
      "inputs": [
        {
          "internalType": "bytes32",
          "name": "role",
          "type": "bytes32"
        },
        {
          "internalType": "address",
          "name": "account",
          "type": "address"
        }
      ],
      "name": "revokeRole",
      "outputs": [],
      "stateMutability": "nonpayable",
      "type": "function"
    },
    {
      "inputs": [
        {
          "internalType": "bytes4",
          "name": "interfaceId",
          "type": "bytes4"
        }
      ],
      "name": "supportsInterface",
      "outputs": [
        {
          "internalType": "bool",
          "name": "",
          "type": "bool"
        }
      ],
      "stateMutability": "view",
      "type": "function"
    },
    {
      "inputs": [
        {
          "internalType": "uint256",
          "name": "_referenceDay",
          "type": "uint256"
        },
        {
          "internalType": "uint256",
          "name": "_referenceBlock",
          "type": "uint256"
        },
        {
          "internalType": "uint256",
          "name": "_hashrate",
          "type": "uint256"
        },
        {
          "internalType": "uint256",
          "name": "_reward",
          "type": "uint256"
        },
        {
          "internalType": "uint256",
          "name": "_fees",
          "type": "uint256"
        },
        {
          "internalType": "uint256",
          "name": "_difficulty",
          "type": "uint256"
        },
        {
          "internalType": "bytes",
          "name": "signature",
          "type": "bytes"
        }
      ],
      "name": "updateIndex",
      "outputs": [
        {
          "internalType": "bool",
          "name": "success",
          "type": "bool"
        }
      ],
      "stateMutability": "nonpayable",
      "type": "function"
    }
  ],
  "bytecode": "0x60806040523480156200001157600080fd5b506040516200157e3803806200157e8339810160408190526200003491620001f7565b620000607f0ac90c257048ef1c3e387c26d4a99bde06894efbcbff862dc1885c3a9319308a336200008a565b6200006d6000336200008a565b80516200008290600190602084019062000151565b505062000319565b6200009682826200009a565b5050565b620000a6828262000124565b62000096576000828152602081815260408083206001600160a01b03851684529091529020805460ff19166001179055620000e06200014d565b6001600160a01b0316816001600160a01b0316837f2f8788117e7eff1d82e926ec794901d17c78024a50270940304540a733656f0d60405160405180910390a45050565b6000918252602082815260408084206001600160a01b0393909316845291905290205460ff1690565b3390565b8280546200015f90620002c6565b90600052602060002090601f016020900481019282620001835760008555620001ce565b82601f106200019e57805160ff1916838001178555620001ce565b82800160010185558215620001ce579182015b82811115620001ce578251825591602001919060010190620001b1565b50620001dc929150620001e0565b5090565b5b80821115620001dc5760008155600101620001e1565b600060208083850312156200020a578182fd5b82516001600160401b038082111562000221578384fd5b818501915085601f83011262000235578384fd5b8151818111156200024a576200024a62000303565b604051601f8201601f191681018501838111828210171562000270576200027062000303565b604052818152838201850188101562000287578586fd5b8592505b81831015620002aa57838301850151818401860152918401916200028b565b81831115620002bb57858583830101525b979650505050505050565b600281046001821680620002db57607f821691505b60208210811415620002fd57634e487b7160e01b600052602260045260246000fd5b50919050565b634e487b7160e01b600052604160045260246000fd5b61125580620003296000396000f3fe608060405234801561001057600080fd5b50600436106100ea5760003560e01c8063466a26311161008c578063a217fddf11610066578063a217fddf146101ee578063d547741f146101f6578063d8f4b6fd14610209578063ea7b7b0c14610211576100ea565b8063466a2631146101a257806391d14854146101b55780639507d39a146101c8576100ea565b8063248a9ca3116100c8578063248a9ca3146101425780632f2ff15d14610155578063335932fc1461016a57806336568abe1461018f576100ea565b806301ffc9a7146100ef57806306fdde0314610118578063131775831461012d575b600080fd5b6101026100fd366004610c4f565b610224565b60405161010f9190610dfa565b60405180910390f35b61012061024f565b60405161010f9190610e2c565b6101356102dd565b60405161010f9190610e05565b610135610150366004610bfd565b6102e3565b610168610163366004610c15565b6102f8565b005b61017d610178366004610bfd565b610321565b60405161010f969594939291906110bf565b61016861019d366004610c15565b61035d565b6101026101b0366004610c77565b6103ac565b6101026101c3366004610c15565b610559565b6101db6101d6366004610bfd565b610582565b60405161010f97969594939291906110e7565b610135610632565b610168610204366004610c15565b610637565b610135610656565b61010261021f366004610bfd565b61067a565b60006001600160e01b03198216637965db0b60e01b1480610249575061024982610691565b92915050565b6001805461025c906111b8565b80601f0160208091040260200160405190810160405280929190818152602001828054610288906111b8565b80156102d55780601f106102aa576101008083540402835291602001916102d5565b820191906000526020600020905b8154815290600101906020018083116102b857829003601f168201915b505050505081565b60025481565b60009081526020819052604090206001015490565b610301826102e3565b6103128161030d6106aa565b6106ae565b61031c8383610712565b505050565b60036020528060005260406000206000915090508060000154908060010154908060020154908060030154908060040154908060050154905086565b6103656106aa565b6001600160a01b0316816001600160a01b03161461039e5760405162461bcd60e51b81526004016103959061104d565b60405180910390fd5b6103a88282610797565b5050565b60006103d87f0ac90c257048ef1c3e387c26d4a99bde06894efbcbff862dc1885c3a9319308a33610559565b6103f45760405162461bcd60e51b815260040161039590610fd4565b6000888888888888604051602001610411969594939291906110bf565b604051602081830303815290604052805190602001206040516020016104379190610d54565b60405160208183030381529060405280519060200120905061047d7f0ac90c257048ef1c3e387c26d4a99bde06894efbcbff862dc1885c3a9319308a6101c3838661081a565b6104995760405162461bcd60e51b815260040161039590610f67565b600089815260036020526040902060050154156104c85760405162461bcd60e51b815260040161039590610f02565b600089815260036020819052604091829020426005820181905560028083018b9055600183018c905592820189905560048201889055908b9055908b9055905189918b9133917fa4f339c6fee573da0cfc2b6116a1f4b546d31bab7ebc051c25de7368e0c42d2691610542918d918d918d918d919061109c565b60405180910390a450600198975050505050505050565b6000918252602082815260408084206001600160a01b0393909316845291905290205460ff1690565b6000818152600360208181526040808420815160c081018352815481526001820154938101939093526002810154918301919091529182015460608201526004820154608082015260059091015460a082018190528291829182918291829182916105ff5760405162461bcd60e51b815260040161039590610f39565b8051602082015160408301516060840151608085015160a0909501519c9d939c929b509099509750919550909350915050565b600081565b610640826102e3565b61064c8161030d6106aa565b61031c8383610797565b7f0ac90c257048ef1c3e387c26d4a99bde06894efbcbff862dc1885c3a9319308a81565b600090815260036020526040902060050154151590565b6001600160e01b031981166301ffc9a760e01b14919050565b3390565b6106b88282610559565b6103a8576106d0816001600160a01b03166014610865565b6106db836020610865565b6040516020016106ec929190610d85565b60408051601f198184030181529082905262461bcd60e51b825261039591600401610e2c565b61071c8282610559565b6103a8576000828152602081815260408083206001600160a01b03851684529091529020805460ff191660011790556107536106aa565b6001600160a01b0316816001600160a01b0316837f2f8788117e7eff1d82e926ec794901d17c78024a50270940304540a733656f0d60405160405180910390a45050565b6107a18282610559565b156103a8576000828152602081815260408083206001600160a01b03851684529091529020805460ff191690556107d66106aa565b6001600160a01b0316816001600160a01b0316837ff6391f5c32d9c69d2a47ea670b442974b53935d1edc7fd64eb21e047a839171b60405160405180910390a45050565b6000815160411461083d5760405162461bcd60e51b815260040161039590610ecb565b60208201516040830151606084015160001a61085b86828585610a1e565b9695505050505050565b6060600061087483600261112f565b61087f906002611117565b67ffffffffffffffff8111156108a557634e487b7160e01b600052604160045260246000fd5b6040519080825280601f01601f1916602001820160405280156108cf576020820181803683370190505b509050600360fc1b816000815181106108f857634e487b7160e01b600052603260045260246000fd5b60200101906001600160f81b031916908160001a905350600f60fb1b8160018151811061093557634e487b7160e01b600052603260045260246000fd5b60200101906001600160f81b031916908160001a905350600061095984600261112f565b610964906001611117565b90505b60018111156109f8576f181899199a1a9b1b9c1cb0b131b232b360811b85600f16601081106109a657634e487b7160e01b600052603260045260246000fd5b1a60f81b8282815181106109ca57634e487b7160e01b600052603260045260246000fd5b60200101906001600160f81b031916908160001a90535060049490941c936109f1816111a1565b9050610967565b508315610a175760405162461bcd60e51b815260040161039590610e96565b9392505050565b60007f7fffffffffffffffffffffffffffffff5d576e7357a4501ddfe92f46681b20a0821115610a605760405162461bcd60e51b815260040161039590610f92565b6000601e8560ff161115610b1b57610a7960048661114e565b60ff16601b1480610a975750610a9060048661114e565b60ff16601c145b610ab35760405162461bcd60e51b81526004016103959061100b565b6001610abe87610bcd565b610ac960048861114e565b868660405160008152602001604052604051610ae89493929190610e0e565b6020604051602081039080840390855afa158015610b0a573d6000803e3d6000fd5b505050602060405103519050610b9e565b8460ff16601b1480610b3057508460ff16601c145b610b4c5760405162461bcd60e51b81526004016103959061100b565b60018686868660405160008152602001604052604051610b6f9493929190610e0e565b6020604051602081039080840390855afa158015610b91573d6000803e3d6000fd5b5050506020604051035190505b6001600160a01b038116610bc45760405162461bcd60e51b815260040161039590610e5f565b95945050505050565b600081604051602001610be09190610d54565b604051602081830303815290604052805190602001209050919050565b600060208284031215610c0e578081fd5b5035919050565b60008060408385031215610c27578081fd5b8235915060208301356001600160a01b0381168114610c44578182fd5b809150509250929050565b600060208284031215610c60578081fd5b81356001600160e01b031981168114610a17578182fd5b600080600080600080600060e0888a031215610c91578283fd5b87359650602080890135965060408901359550606089013594506080890135935060a0890135925060c089013567ffffffffffffffff80821115610cd3578384fd5b818b0191508b601f830112610ce6578384fd5b813581811115610cf857610cf8611209565b604051601f8201601f1916810185018381118282101715610d1b57610d1b611209565b60405281815283820185018e1015610d31578586fd5b818585018683013785858383010152809550505050505092959891949750929550565b7f19457468657265756d205369676e6564204d6573736167653a0a3332000000008152601c810191909152603c0190565b60007f416363657373436f6e74726f6c3a206163636f756e742000000000000000000082528351610dbd816017850160208801611171565b7001034b99036b4b9b9b4b733903937b6329607d1b6017918401918201528351610dee816028840160208801611171565b01602801949350505050565b901515815260200190565b90815260200190565b93845260ff9290921660208401526040830152606082015260800190565b6000602082528251806020840152610e4b816040850160208701611171565b601f01601f19169190910160400192915050565b60208082526018908201527f45434453413a20696e76616c6964207369676e61747572650000000000000000604082015260600190565b6020808252818101527f537472696e67733a20686578206c656e67746820696e73756666696369656e74604082015260600190565b6020808252601f908201527f45434453413a20696e76616c6964207369676e6174757265206c656e67746800604082015260600190565b6020808252601e908201527f496e666f726d6174696f6e2063616e6e6f7420626520757064617465642e0000604082015260600190565b60208082526014908201527311185d19481b9bdd081e595d081a5b99195e195960621b604082015260600190565b602080825260119082015270496e76616c6964207369676e617475726560781b604082015260600190565b60208082526022908201527f45434453413a20696e76616c6964207369676e6174757265202773272076616c604082015261756560f01b606082015260800190565b6020808252601e908201527f557064617465206e6f7420616c6c6f77656420746f2065766572796f6e650000604082015260600190565b60208082526022908201527f45434453413a20696e76616c6964207369676e6174757265202776272076616c604082015261756560f01b606082015260800190565b6020808252602f908201527f416363657373436f6e74726f6c3a2063616e206f6e6c792072656e6f756e636560408201526e103937b632b9903337b91039b2b63360891b606082015260800190565b948552602085019390935260408401919091526060830152608082015260a00190565b958652602086019490945260408501929092526060840152608083015260a082015260c00190565b968752602087019590955260408601939093526060850191909152608084015260a083015260c082015260e00190565b6000821982111561112a5761112a6111f3565b500190565b6000816000190483118215151615611149576111496111f3565b500290565b600060ff821660ff841680821015611168576111686111f3565b90039392505050565b60005b8381101561118c578181015183820152602001611174565b8381111561119b576000848401525b50505050565b6000816111b0576111b06111f3565b506000190190565b6002810460018216806111cc57607f821691505b602082108114156111ed57634e487b7160e01b600052602260045260246000fd5b50919050565b634e487b7160e01b600052601160045260246000fd5b634e487b7160e01b600052604160045260246000fdfea26469706673582212203b08725c568054d96bbf1acc575565e520c860432fecf197f8816e5eaa434ba964736f6c63430008000033",
  "linkReferences": {},
  "deployedLinkReferences": {}
}