{
  "_format": "hh-sol-artifact-1",
  "contractName": "Oracle",
  "sourceName": "contracts/Oracle.sol",
  "abi": [
    {
      "inputs": [
        {
          "internalType": "string",
          "name": "_miningPool",
          "type": "string"
        }
      ],
      "stateMutability": "nonpayable",
      "type": "constructor"
    },
    {
      "anonymous": false,
      "inputs": [
        {
          "indexed": false,
          "internalType": "address",
          "name": "sands",
          "type": "address"
        },
        {
          "indexed": false,
          "internalType": "uint256",
          "name": "reward",
          "type": "uint256"
        },
        {
          "indexed": false,
          "internalType": "uint256",
          "name": "balance",
          "type": "uint256"
        },
        {
          "indexed": false,
          "internalType": "uint256",
          "name": "updated",
          "type": "uint256"
        },
        {
          "indexed": false,
          "internalType": "uint256",
          "name": "minerHashrate",
          "type": "uint256"
        },
        {
          "indexed": false,
          "internalType": "uint256",
          "name": "minerReward",
          "type": "uint256"
        },
        {
          "indexed": false,
          "internalType": "uint256",
          "name": "poolHashrate",
          "type": "uint256"
        },
        {
          "indexed": false,
          "internalType": "uint256",
          "name": "poolReward",
          "type": "uint256"
        },
        {
          "indexed": false,
          "internalType": "uint8",
          "name": "day",
          "type": "uint8"
        },
        {
          "indexed": false,
          "internalType": "bool",
          "name": "defaulted",
          "type": "bool"
        }
      ],
      "name": "MinerStatsUpdated",
      "type": "event"
    },
    {
      "inputs": [
        {
          "internalType": "address",
          "name": "sands",
          "type": "address"
        }
      ],
      "name": "getStats",
      "outputs": [
        {
          "internalType": "uint256",
          "name": "reward",
          "type": "uint256"
        },
        {
          "internalType": "uint256",
          "name": "updated",
          "type": "uint256"
        },
        {
          "internalType": "uint64",
          "name": "day",
          "type": "uint64"
        },
        {
          "internalType": "bool",
          "name": "defaulted",
          "type": "bool"
        }
      ],
      "stateMutability": "view",
      "type": "function"
    },
    {
      "inputs": [
        {
          "internalType": "address",
          "name": "",
          "type": "address"
        }
      ],
      "name": "miner",
      "outputs": [
        {
          "internalType": "address",
          "name": "sands",
          "type": "address"
        },
        {
          "internalType": "uint256",
          "name": "reward",
          "type": "uint256"
        },
        {
          "internalType": "uint256",
          "name": "updated",
          "type": "uint256"
        },
        {
          "internalType": "uint8",
          "name": "day",
          "type": "uint8"
        },
        {
          "internalType": "bool",
          "name": "defaulted",
          "type": "bool"
        }
      ],
      "stateMutability": "view",
      "type": "function"
    },
    {
      "inputs": [],
      "name": "miningPool",
      "outputs": [
        {
          "internalType": "string",
          "name": "",
          "type": "string"
        }
      ],
      "stateMutability": "view",
      "type": "function"
    },
    {
      "inputs": [],
      "name": "owner",
      "outputs": [
        {
          "internalType": "address",
          "name": "",
          "type": "address"
        }
      ],
      "stateMutability": "view",
      "type": "function"
    },
    {
      "inputs": [
        {
          "internalType": "address",
          "name": "sands",
          "type": "address"
        },
        {
          "internalType": "uint256",
          "name": "minerHashrate",
          "type": "uint256"
        },
        {
          "internalType": "uint256",
          "name": "minerReward",
          "type": "uint256"
        },
        {
          "internalType": "uint256",
          "name": "poolHashrate",
          "type": "uint256"
        },
        {
          "internalType": "uint256",
          "name": "poolReward",
          "type": "uint256"
        }
      ],
      "name": "updateMinerStats",
      "outputs": [
        {
          "internalType": "bool",
          "name": "success",
          "type": "bool"
        }
      ],
      "stateMutability": "nonpayable",
      "type": "function"
    }
  ],
  "bytecode": "0x60806040523480156200001157600080fd5b506040516200107538038062001075833981016040819052620000349162000109565b80516200004990600190602084019062000063565b5050600080546001600160a01b031916331790556200022b565b8280546200007190620001d8565b90600052602060002090601f016020900481019282620000955760008555620000e0565b82601f10620000b057805160ff1916838001178555620000e0565b82800160010185558215620000e0579182015b82811115620000e0578251825591602001919060010190620000c3565b50620000ee929150620000f2565b5090565b5b80821115620000ee5760008155600101620000f3565b600060208083850312156200011c578182fd5b82516001600160401b038082111562000133578384fd5b818501915085601f83011262000147578384fd5b8151818111156200015c576200015c62000215565b604051601f8201601f191681018501838111828210171562000182576200018262000215565b604052818152838201850188101562000199578586fd5b8592505b81831015620001bc57838301850151818401860152918401916200019d565b81831115620001cd57858583830101525b979650505050505050565b600281046001821680620001ed57607f821691505b602082108114156200020f57634e487b7160e01b600052602260045260246000fd5b50919050565b634e487b7160e01b600052604160045260246000fd5b610e3a806200023b6000396000f3fe608060405234801561001057600080fd5b50600436106100575760003560e01c8063733975971461005c5780638da5cb5b1461007a578063c23f85d61461008f578063d45a7e2e146100b2578063fe80f19a146100d6575b600080fd5b6100646100f6565b6040516100719190610a46565b60405180910390f35b610082610184565b604051610071919061099f565b6100a261009d36600461092c565b610193565b6040516100719493929190610bd5565b6100c56100c036600461092c565b610245565b604051610071959493929190610a08565b6100e96100e4366004610946565b610284565b6040516100719190610a3b565b6001805461010390610d9d565b80601f016020809104026020016040519081016040528092919081815260200182805461012f90610d9d565b801561017c5780601f106101515761010080835404028352916020019161017c565b820191906000526020600020905b81548152906001019060200180831161015f57829003601f168201915b505050505081565b6000546001600160a01b031681565b6001600160a01b038082166000908152600260208181526040808420815160a08101835281549096168652600181015492860192909252918101549184018290526003015460ff80821660608601526101009091041615156080840152909182918291829161021d5760405162461bcd60e51b815260040161021490610ba6565b60405180910390fd5b602081015160408201516060830151608090930151919890975060ff90921695509350915050565b600260208190526000918252604090912080546001820154928201546003909201546001600160a01b0390911692919060ff8082169161010090041685565b600080546001600160a01b031633146102af5760405162461bcd60e51b815260040161021490610b1c565b6001600160a01b03808716600090815260026020818152604092839020835160a08101855281549095168552600181015491850191909152908101549183018290526003015460ff80821660608501526101009091041615156080830152156103a4576000808061032b6103266201518042610ca8565b610771565b925092509250600080600061034c6201518088604001516103269190610ca8565b925092509250818514806103605750818514155b801561036c5750808414155b80156103815750828614806103815750828614155b61039d5760405162461bcd60e51b815260040161021490610b53565b5050505050505b866001600160a01b031663ef78d4fd6040518163ffffffff1660e01b815260040160206040518083038186803b1580156103dd57600080fd5b505afa1580156103f1573d6000803e3d6000fd5b505050506040513d601f19601f820116820180604052508101906104159190610987565b816060015160ff161061058857866001600160a01b031631816020015111156104bb576001608082018181526001600160a01b03898116600090815260026020818152604092839020875181546001600160a01b031916951694909417845586015183860155908501519082015560609093015160039093018054915160ff1990921660ff9094169390931761ff00191661010091151591909102179091559050610768565b8060200151876001600160a01b03163110610570576000608082015260608101516104e7906001610c55565b60ff908116606083019081526001600160a01b03898116600090815260026020818152604092839020875181546001600160a01b0319169516949094178455860151600180850191909155918601519083015591516003909101805460809095015160ff19909516919093161761ff001916610100931515939093029290921790559050610768565b60405162461bcd60e51b815260040161021490610acb565b8060800151156105aa5760405162461bcd60e51b815260040161021490610a99565b866001600160a01b031631816020015111156105cc57600160808201526106a4565b600080886001600160a01b031663154ce2e46040518163ffffffff1660e01b815260040160206040518083038186803b15801561060857600080fd5b505afa15801561061c573d6000803e3d6000fd5b505050506040513d601f19601f820116820180604052508101906106409190610987565b90508088106106645761065d88610657838a6108e5565b906108f8565b9150610675565b6106728661065783886108e5565b91505b60208301516106849083610904565b60208401526060830151610699906001610c55565b60ff16606084015250505b4260408281018281526001600160a01b038a811660008181526002602081815291869020885181546001600160a01b03191695169490941784559087015160018401819055935190830155606086015160039092018054608088015160ff1990911660ff85161761ff001916610100821515021790915593517ff54aefa7a1a6323f2c90e05d359392e33f0b3d44ef2fc4f281f818d5ae7842239561075a958e959493319391928e928e928e928e9291906109b3565b60405180910390a160019150505b95945050505050565b60008080838162253d8c6107888362010bd9610bfc565b6107929190610bfc565b9050600062023ab16107a5836004610cbc565b6107af9190610c7a565b905060046107c08262023ab1610cbc565b6107cb906003610bfc565b6107d59190610c7a565b6107df9083610d5e565b9150600062164b096107f2846001610bfc565b6107fe90610fa0610cbc565b6108089190610c7a565b90506004610818826105b5610cbc565b6108229190610c7a565b61082c9084610d5e565b61083790601f610bfc565b9250600061098f610849856050610cbc565b6108539190610c7a565b9050600060506108658361098f610cbc565b61086f9190610c7a565b6108799086610d5e565b9050610886600b83610c7a565b945061089385600c610cbc565b61089e836002610bfc565b6108a89190610d5e565b915084836108b7603187610d5e565b6108c2906064610cbc565b6108cc9190610bfc565b6108d69190610bfc565b9a919950975095505050505050565b60006108f18284610d3f565b9392505050565b60006108f18284610ca8565b60006108f18284610c3d565b80356001600160a01b038116811461092757600080fd5b919050565b60006020828403121561093d578081fd5b6108f182610910565b600080600080600060a0868803121561095d578081fd5b61096686610910565b97602087013597506040870135966060810135965060800135945092505050565b600060208284031215610998578081fd5b5051919050565b6001600160a01b0391909116815260200190565b6001600160a01b039a909a168a5260208a019890985260408901969096526060880194909452608087019290925260a086015260c085015260e084015260ff1661010083015215156101208201526101400190565b6001600160a01b039590951685526020850193909352604084019190915260ff1660608301521515608082015260a00190565b901515815260200190565b6000602080835283518082850152825b81811015610a7257858101830151858201604001528201610a56565b81811115610a835783604083870101525b50601f01601f1916929092016040019392505050565b60208082526018908201527714d85b991cc8185b1c9958591e481bdb88191959985d5b1d60421b604082015260600190565b60208082526031908201527f43616e6e6f7420757064617465206f7261636c652c2074686520636f6e7472616040820152706374206973206e6f742072756e6e696e6760781b606082015260800190565b6020808252601c908201527f43616e6e6f74206578656375746520746869732066756e6374696f6e00000000604082015260600190565b60208082526033908201527f43616e6e6f742075706461746520746865204d696e6572205374617473207477604082015272696365206f6e207468652073616d652064617960681b606082015260800190565b602080825260159082015274135a5b995c881cdd185d1cc81b9bdd08199bdd5b99605a1b604082015260600190565b938452602084019290925267ffffffffffffffff1660408301521515606082015260800190565b600080821280156001600160ff1b0384900385131615610c1e57610c1e610dd8565b600160ff1b8390038412811615610c3757610c37610dd8565b50500190565b60008219821115610c5057610c50610dd8565b500190565b600060ff821660ff84168060ff03821115610c7257610c72610dd8565b019392505050565b600082610c8957610c89610dee565b600160ff1b821460001984141615610ca357610ca3610dd8565b500590565b600082610cb757610cb7610dee565b500490565b60006001600160ff1b0381841382841380821686840486111615610ce257610ce2610dd8565b600160ff1b84871282811687830589121615610d0057610d00610dd8565b858712925087820587128484161615610d1b57610d1b610dd8565b87850587128184161615610d3157610d31610dd8565b505050929093029392505050565b6000816000190483118215151615610d5957610d59610dd8565b500290565b60008083128015600160ff1b850184121615610d7c57610d7c610dd8565b6001600160ff1b0384018313811615610d9757610d97610dd8565b50500390565b600281046001821680610db157607f821691505b60208210811415610dd257634e487b7160e01b600052602260045260246000fd5b50919050565b634e487b7160e01b600052601160045260246000fd5b634e487b7160e01b600052601260045260246000fdfea2646970667358221220c1236d309cfab28ce078fd46fc7c8e2c5d1f69d6c4bc739af4b2cc09fa2be5b964736f6c63430008000033",
  "linkReferences": {},
  "deployedLinkReferences": {}
}