{
  "_format": "hh-sol-artifact-1",
  "contractName": "Oracle",
  "sourceName": "contracts/Oracle.sol",
  "abi": [
    {
      "inputs": [
        {
          "internalType": "string",
          "name": "_name",
          "type": "string"
        }
      ],
      "stateMutability": "nonpayable",
      "type": "constructor"
    },
    {
      "anonymous": false,
      "inputs": [
        {
          "indexed": true,
          "internalType": "address",
          "name": "caller",
          "type": "address"
        },
        {
          "indexed": true,
          "internalType": "uint256",
          "name": "referenceDay",
          "type": "uint256"
        },
        {
          "indexed": true,
          "internalType": "uint256",
          "name": "referenceBlock",
          "type": "uint256"
        },
        {
          "indexed": false,
          "internalType": "uint256",
          "name": "hashrate",
          "type": "uint256"
        },
        {
          "indexed": false,
          "internalType": "uint256",
          "name": "reward",
          "type": "uint256"
        },
        {
          "indexed": false,
          "internalType": "uint256",
          "name": "fees",
          "type": "uint256"
        },
        {
          "indexed": false,
          "internalType": "uint256",
          "name": "difficulty",
          "type": "uint256"
        },
        {
          "indexed": false,
          "internalType": "uint256",
          "name": "timestamp",
          "type": "uint256"
        }
      ],
      "name": "OracleUpdate",
      "type": "event"
    },
    {
      "anonymous": false,
      "inputs": [
        {
          "indexed": true,
          "internalType": "bytes32",
          "name": "role",
          "type": "bytes32"
        },
        {
          "indexed": true,
          "internalType": "bytes32",
          "name": "previousAdminRole",
          "type": "bytes32"
        },
        {
          "indexed": true,
          "internalType": "bytes32",
          "name": "newAdminRole",
          "type": "bytes32"
        }
      ],
      "name": "RoleAdminChanged",
      "type": "event"
    },
    {
      "anonymous": false,
      "inputs": [
        {
          "indexed": true,
          "internalType": "bytes32",
          "name": "role",
          "type": "bytes32"
        },
        {
          "indexed": true,
          "internalType": "address",
          "name": "account",
          "type": "address"
        },
        {
          "indexed": true,
          "internalType": "address",
          "name": "sender",
          "type": "address"
        }
      ],
      "name": "RoleGranted",
      "type": "event"
    },
    {
      "anonymous": false,
      "inputs": [
        {
          "indexed": true,
          "internalType": "bytes32",
          "name": "role",
          "type": "bytes32"
        },
        {
          "indexed": true,
          "internalType": "address",
          "name": "account",
          "type": "address"
        },
        {
          "indexed": true,
          "internalType": "address",
          "name": "sender",
          "type": "address"
        }
      ],
      "name": "RoleRevoked",
      "type": "event"
    },
    {
      "inputs": [],
      "name": "DEFAULT_ADMIN_ROLE",
      "outputs": [
        {
          "internalType": "bytes32",
          "name": "",
          "type": "bytes32"
        }
      ],
      "stateMutability": "view",
      "type": "function"
    },
    {
      "inputs": [],
      "name": "PUBLISHER_ROLE",
      "outputs": [
        {
          "internalType": "bytes32",
          "name": "",
          "type": "bytes32"
        }
      ],
      "stateMutability": "view",
      "type": "function"
    },
    {
      "inputs": [
        {
          "internalType": "uint256",
          "name": "_referenceDay",
          "type": "uint256"
        }
      ],
      "name": "get",
      "outputs": [
        {
          "internalType": "uint256",
          "name": "referenceDay",
          "type": "uint256"
        },
        {
          "internalType": "uint256",
          "name": "referenceBlock",
          "type": "uint256"
        },
        {
          "internalType": "uint256",
          "name": "hashrate",
          "type": "uint256"
        },
        {
          "internalType": "uint256",
          "name": "reward",
          "type": "uint256"
        },
        {
          "internalType": "uint256",
          "name": "fees",
          "type": "uint256"
        },
        {
          "internalType": "uint256",
          "name": "difficulty",
          "type": "uint256"
        },
        {
          "internalType": "uint256",
          "name": "timestamp",
          "type": "uint256"
        }
      ],
      "stateMutability": "view",
      "type": "function"
    },
    {
      "inputs": [],
      "name": "getLastIndexedDay",
      "outputs": [
        {
          "internalType": "uint256",
          "name": "",
          "type": "uint256"
        }
      ],
      "stateMutability": "view",
      "type": "function"
    },
    {
      "inputs": [
        {
          "internalType": "bytes32",
          "name": "role",
          "type": "bytes32"
        }
      ],
      "name": "getRoleAdmin",
      "outputs": [
        {
          "internalType": "bytes32",
          "name": "",
          "type": "bytes32"
        }
      ],
      "stateMutability": "view",
      "type": "function"
    },
    {
      "inputs": [
        {
          "internalType": "bytes32",
          "name": "role",
          "type": "bytes32"
        },
        {
          "internalType": "address",
          "name": "account",
          "type": "address"
        }
      ],
      "name": "grantRole",
      "outputs": [],
      "stateMutability": "nonpayable",
      "type": "function"
    },
    {
      "inputs": [
        {
          "internalType": "bytes32",
          "name": "role",
          "type": "bytes32"
        },
        {
          "internalType": "address",
          "name": "account",
          "type": "address"
        }
      ],
      "name": "hasRole",
      "outputs": [
        {
          "internalType": "bool",
          "name": "",
          "type": "bool"
        }
      ],
      "stateMutability": "view",
      "type": "function"
    },
    {
      "inputs": [
        {
          "internalType": "uint256",
          "name": "",
          "type": "uint256"
        }
      ],
      "name": "index",
      "outputs": [
        {
          "internalType": "uint256",
          "name": "referenceBlock",
          "type": "uint256"
        },
        {
          "internalType": "uint256",
          "name": "hashrate",
          "type": "uint256"
        },
        {
          "internalType": "uint256",
          "name": "reward",
          "type": "uint256"
        },
        {
          "internalType": "uint256",
          "name": "fees",
          "type": "uint256"
        },
        {
          "internalType": "uint256",
          "name": "difficulty",
          "type": "uint256"
        },
        {
          "internalType": "uint256",
          "name": "timestamp",
          "type": "uint256"
        }
      ],
      "stateMutability": "view",
      "type": "function"
    },
    {
      "inputs": [
        {
          "internalType": "uint256",
          "name": "_referenceDay",
          "type": "uint256"
        }
      ],
      "name": "isDayIndexed",
      "outputs": [
        {
          "internalType": "bool",
          "name": "",
          "type": "bool"
        }
      ],
      "stateMutability": "view",
      "type": "function"
    },
    {
      "inputs": [],
      "name": "isHealthy",
      "outputs": [
        {
          "internalType": "bool",
          "name": "",
          "type": "bool"
        }
      ],
      "stateMutability": "view",
      "type": "function"
    },
    {
      "inputs": [],
      "name": "lastIndexedDay",
      "outputs": [
        {
          "internalType": "uint256",
          "name": "",
          "type": "uint256"
        }
      ],
      "stateMutability": "view",
      "type": "function"
    },
    {
      "inputs": [],
      "name": "name",
      "outputs": [
        {
          "internalType": "string",
          "name": "",
          "type": "string"
        }
      ],
      "stateMutability": "view",
      "type": "function"
    },
    {
      "inputs": [
        {
          "internalType": "bytes32",
          "name": "role",
          "type": "bytes32"
        },
        {
          "internalType": "address",
          "name": "account",
          "type": "address"
        }
      ],
      "name": "renounceRole",
      "outputs": [],
      "stateMutability": "nonpayable",
      "type": "function"
    },
    {
      "inputs": [
        {
          "internalType": "bytes32",
          "name": "role",
          "type": "bytes32"
        },
        {
          "internalType": "address",
          "name": "account",
          "type": "address"
        }
      ],
      "name": "revokeRole",
      "outputs": [],
      "stateMutability": "nonpayable",
      "type": "function"
    },
    {
      "inputs": [
        {
          "internalType": "bytes4",
          "name": "interfaceId",
          "type": "bytes4"
        }
      ],
      "name": "supportsInterface",
      "outputs": [
        {
          "internalType": "bool",
          "name": "",
          "type": "bool"
        }
      ],
      "stateMutability": "view",
      "type": "function"
    },
    {
      "inputs": [
        {
          "internalType": "uint256",
          "name": "_referenceDay",
          "type": "uint256"
        },
        {
          "internalType": "uint256",
          "name": "_referenceBlock",
          "type": "uint256"
        },
        {
          "internalType": "uint256",
          "name": "_hashrate",
          "type": "uint256"
        },
        {
          "internalType": "uint256",
          "name": "_reward",
          "type": "uint256"
        },
        {
          "internalType": "uint256",
          "name": "_fees",
          "type": "uint256"
        },
        {
          "internalType": "uint256",
          "name": "_difficulty",
          "type": "uint256"
        },
        {
          "internalType": "bytes",
          "name": "signature",
          "type": "bytes"
        }
      ],
      "name": "updateIndex",
      "outputs": [
        {
          "internalType": "bool",
          "name": "success",
          "type": "bool"
        }
      ],
      "stateMutability": "nonpayable",
      "type": "function"
    }
  ],
  "bytecode": "0x60806040523480156200001157600080fd5b506040516200166c3803806200166c8339810160408190526200003491620001f7565b620000607f0ac90c257048ef1c3e387c26d4a99bde06894efbcbff862dc1885c3a9319308a336200008a565b6200006d6000336200008a565b80516200008290600190602084019062000151565b505062000319565b6200009682826200009a565b5050565b620000a6828262000124565b62000096576000828152602081815260408083206001600160a01b03851684529091529020805460ff19166001179055620000e06200014d565b6001600160a01b0316816001600160a01b0316837f2f8788117e7eff1d82e926ec794901d17c78024a50270940304540a733656f0d60405160405180910390a45050565b6000918252602082815260408084206001600160a01b0393909316845291905290205460ff1690565b3390565b8280546200015f90620002c6565b90600052602060002090601f016020900481019282620001835760008555620001ce565b82601f106200019e57805160ff1916838001178555620001ce565b82800160010185558215620001ce579182015b82811115620001ce578251825591602001919060010190620001b1565b50620001dc929150620001e0565b5090565b5b80821115620001dc5760008155600101620001e1565b600060208083850312156200020a578182fd5b82516001600160401b038082111562000221578384fd5b818501915085601f83011262000235578384fd5b8151818111156200024a576200024a62000303565b604051601f8201601f191681018501838111828210171562000270576200027062000303565b604052818152838201850188101562000287578586fd5b8592505b81831015620002aa57838301850151818401860152918401916200028b565b81831115620002bb57858583830101525b979650505050505050565b600281046001821680620002db57607f821691505b60208210811415620002fd57634e487b7160e01b600052602260045260246000fd5b50919050565b634e487b7160e01b600052604160045260246000fd5b61134380620003296000396000f3fe608060405234801561001057600080fd5b50600436106101005760003560e01c8063856f939f11610097578063d547741f11610066578063d547741f14610214578063d8f4b6fd14610227578063e40208041461022f578063ea7b7b0c1461023757610100565b8063856f939f146101cb57806391d14854146101d35780639507d39a146101e6578063a217fddf1461020c57610100565b80632f2ff15d116100d35780632f2ff15d1461016b578063335932fc1461018057806336568abe146101a5578063466a2631146101b857610100565b806301ffc9a71461010557806306fdde031461012e5780631eccf3db14610143578063248a9ca314610158575b600080fd5b610118610113366004610d1d565b61024a565b6040516101259190610ec8565b60405180910390f35b610136610275565b6040516101259190610efa565b61014b610303565b6040516101259190610ed3565b61014b610166366004610ccb565b610309565b61017e610179366004610ce3565b61031e565b005b61019361018e366004610ccb565b610347565b6040516101259695949392919061118d565b61017e6101b3366004610ce3565b610383565b6101186101c6366004610d45565b6103d2565b61014b61058c565b6101186101e1366004610ce3565b610592565b6101f96101f4366004610ccb565b6105bb565b60405161012597969594939291906111b5565b61014b61066b565b61017e610222366004610ce3565b610670565b61014b61068f565b6101186106b3565b610118610245366004610ccb565b6106e1565b60006001600160e01b03198216637965db0b60e01b148061026f575061026f826106f8565b92915050565b60018054610282906112a6565b80601f01602080910402602001604051908101604052809291908181526020018280546102ae906112a6565b80156102fb5780601f106102d0576101008083540402835291602001916102fb565b820191906000526020600020905b8154815290600101906020018083116102de57829003601f168201915b505050505081565b60025490565b60009081526020819052604090206001015490565b61032782610309565b61033881610333610711565b610715565b6103428383610779565b505050565b60036020528060005260406000206000915090508060000154908060010154908060020154908060030154908060040154908060050154905086565b61038b610711565b6001600160a01b0316816001600160a01b0316146103c45760405162461bcd60e51b81526004016103bb9061111b565b60405180910390fd5b6103ce82826107fe565b5050565b60006103fe7f0ac90c257048ef1c3e387c26d4a99bde06894efbcbff862dc1885c3a9319308a33610592565b61041a5760405162461bcd60e51b81526004016103bb906110a2565b60008888888888886040516020016104379695949392919061118d565b6040516020818303038152906040528051906020012060405160200161045d9190610e22565b6040516020818303038152906040528051906020012090506104a37f0ac90c257048ef1c3e387c26d4a99bde06894efbcbff862dc1885c3a9319308a6101e18386610881565b6104bf5760405162461bcd60e51b81526004016103bb90611035565b600089815260036020526040902060050154156104ee5760405162461bcd60e51b81526004016103bb90610fd0565b60008981526003602081905260409091204260058201556002808201899055600182018a905591810187905560048101869055899055548911156105325760028990555b8789336001600160a01b03167fa4f339c6fee573da0cfc2b6116a1f4b546d31bab7ebc051c25de7368e0c42d268a8a8a8a4260405161057595949392919061116a565b60405180910390a450600198975050505050505050565b60025481565b6000918252602082815260408084206001600160a01b0393909316845291905290205460ff1690565b6000818152600360208181526040808420815160c081018352815481526001820154938101939093526002810154918301919091529182015460608201526004820154608082015260059091015460a082018190528291829182918291829182916106385760405162461bcd60e51b81526004016103bb90611007565b8051602082015160408301516060840151608085015160a0909501519c9d939c929b509099509750919550909350915050565b600081565b61067982610309565b61068581610333610711565b61034283836107fe565b7f0ac90c257048ef1c3e387c26d4a99bde06894efbcbff862dc1885c3a9319308a81565b6000806106c362015180426111fd565b90506106ce816108cc565b6106d96002546108cc565b600191505090565b600090815260036020526040902060050154151590565b6001600160e01b031981166301ffc9a760e01b14919050565b3390565b61071f8282610592565b6103ce57610737816001600160a01b03166014610912565b610742836020610912565b604051602001610753929190610e53565b60408051601f198184030181529082905262461bcd60e51b82526103bb91600401610efa565b6107838282610592565b6103ce576000828152602081815260408083206001600160a01b03851684529091529020805460ff191660011790556107ba610711565b6001600160a01b0316816001600160a01b0316837f2f8788117e7eff1d82e926ec794901d17c78024a50270940304540a733656f0d60405160405180910390a45050565b6108088282610592565b156103ce576000828152602081815260408083206001600160a01b03851684529091529020805460ff1916905561083d610711565b6001600160a01b0316816001600160a01b0316837ff6391f5c32d9c69d2a47ea670b442974b53935d1edc7fd64eb21e047a839171b60405160405180910390a45050565b600081516041146108a45760405162461bcd60e51b81526004016103bb90610f99565b60208201516040830151606084015160001a6108c286828585610acb565b9695505050505050565b61090f816040516024016108e09190610ed3565b60408051601f198184030181529190526020810180516001600160e01b031663f5b1bba960e01b179052610c7a565b50565b6060600061092183600261121d565b61092c9060026111e5565b67ffffffffffffffff81111561095257634e487b7160e01b600052604160045260246000fd5b6040519080825280601f01601f19166020018201604052801561097c576020820181803683370190505b509050600360fc1b816000815181106109a557634e487b7160e01b600052603260045260246000fd5b60200101906001600160f81b031916908160001a905350600f60fb1b816001815181106109e257634e487b7160e01b600052603260045260246000fd5b60200101906001600160f81b031916908160001a9053506000610a0684600261121d565b610a119060016111e5565b90505b6001811115610aa5576f181899199a1a9b1b9c1cb0b131b232b360811b85600f1660108110610a5357634e487b7160e01b600052603260045260246000fd5b1a60f81b828281518110610a7757634e487b7160e01b600052603260045260246000fd5b60200101906001600160f81b031916908160001a90535060049490941c93610a9e8161128f565b9050610a14565b508315610ac45760405162461bcd60e51b81526004016103bb90610f64565b9392505050565b60007f7fffffffffffffffffffffffffffffff5d576e7357a4501ddfe92f46681b20a0821115610b0d5760405162461bcd60e51b81526004016103bb90611060565b6000601e8560ff161115610bc857610b2660048661123c565b60ff16601b1480610b445750610b3d60048661123c565b60ff16601c145b610b605760405162461bcd60e51b81526004016103bb906110d9565b6001610b6b87610c9b565b610b7660048861123c565b868660405160008152602001604052604051610b959493929190610edc565b6020604051602081039080840390855afa158015610bb7573d6000803e3d6000fd5b505050602060405103519050610c4b565b8460ff16601b1480610bdd57508460ff16601c145b610bf95760405162461bcd60e51b81526004016103bb906110d9565b60018686868660405160008152602001604052604051610c1c9493929190610edc565b6020604051602081039080840390855afa158015610c3e573d6000803e3d6000fd5b5050506020604051035190505b6001600160a01b038116610c715760405162461bcd60e51b81526004016103bb90610f2d565b95945050505050565b80516a636f6e736f6c652e6c6f67602083016000808483855afa5050505050565b600081604051602001610cae9190610e22565b604051602081830303815290604052805190602001209050919050565b600060208284031215610cdc578081fd5b5035919050565b60008060408385031215610cf5578081fd5b8235915060208301356001600160a01b0381168114610d12578182fd5b809150509250929050565b600060208284031215610d2e578081fd5b81356001600160e01b031981168114610ac4578182fd5b600080600080600080600060e0888a031215610d5f578283fd5b87359650602080890135965060408901359550606089013594506080890135935060a0890135925060c089013567ffffffffffffffff80821115610da1578384fd5b818b0191508b601f830112610db4578384fd5b813581811115610dc657610dc66112f7565b604051601f8201601f1916810185018381118282101715610de957610de96112f7565b60405281815283820185018e1015610dff578586fd5b818585018683013785858383010152809550505050505092959891949750929550565b7f19457468657265756d205369676e6564204d6573736167653a0a3332000000008152601c810191909152603c0190565b60007f416363657373436f6e74726f6c3a206163636f756e742000000000000000000082528351610e8b81601785016020880161125f565b7001034b99036b4b9b9b4b733903937b6329607d1b6017918401918201528351610ebc81602884016020880161125f565b01602801949350505050565b901515815260200190565b90815260200190565b93845260ff9290921660208401526040830152606082015260800190565b6000602082528251806020840152610f1981604085016020870161125f565b601f01601f19169190910160400192915050565b60208082526018908201527f45434453413a20696e76616c6964207369676e61747572650000000000000000604082015260600190565b6020808252818101527f537472696e67733a20686578206c656e67746820696e73756666696369656e74604082015260600190565b6020808252601f908201527f45434453413a20696e76616c6964207369676e6174757265206c656e67746800604082015260600190565b6020808252601e908201527f496e666f726d6174696f6e2063616e6e6f7420626520757064617465642e0000604082015260600190565b60208082526014908201527311185d19481b9bdd081e595d081a5b99195e195960621b604082015260600190565b602080825260119082015270496e76616c6964207369676e617475726560781b604082015260600190565b60208082526022908201527f45434453413a20696e76616c6964207369676e6174757265202773272076616c604082015261756560f01b606082015260800190565b6020808252601e908201527f557064617465206e6f7420616c6c6f77656420746f2065766572796f6e650000604082015260600190565b60208082526022908201527f45434453413a20696e76616c6964207369676e6174757265202776272076616c604082015261756560f01b606082015260800190565b6020808252602f908201527f416363657373436f6e74726f6c3a2063616e206f6e6c792072656e6f756e636560408201526e103937b632b9903337b91039b2b63360891b606082015260800190565b948552602085019390935260408401919091526060830152608082015260a00190565b958652602086019490945260408501929092526060840152608083015260a082015260c00190565b968752602087019590955260408601939093526060850191909152608084015260a083015260c082015260e00190565b600082198211156111f8576111f86112e1565b500190565b60008261121857634e487b7160e01b81526012600452602481fd5b500490565b6000816000190483118215151615611237576112376112e1565b500290565b600060ff821660ff841680821015611256576112566112e1565b90039392505050565b60005b8381101561127a578181015183820152602001611262565b83811115611289576000848401525b50505050565b60008161129e5761129e6112e1565b506000190190565b6002810460018216806112ba57607f821691505b602082108114156112db57634e487b7160e01b600052602260045260246000fd5b50919050565b634e487b7160e01b600052601160045260246000fd5b634e487b7160e01b600052604160045260246000fdfea26469706673582212201e40e0dd7002e283de3ca3dc82edd5252e1cabdfbf610a5030498cd596be49f264736f6c63430008000033",
  "linkReferences": {},
  "deployedLinkReferences": {}
}