{
  "_format": "hh-sol-artifact-1",
  "contractName": "Oracle",
  "sourceName": "contracts/Oracle.sol",
  "abi": [
    {
      "inputs": [],
      "stateMutability": "nonpayable",
      "type": "constructor"
    },
    {
      "anonymous": false,
      "inputs": [
        {
          "indexed": true,
          "internalType": "uint256",
          "name": "referenceDay",
          "type": "uint256"
        },
        {
          "indexed": true,
          "internalType": "uint256",
          "name": "referenceBlock",
          "type": "uint256"
        },
        {
          "indexed": false,
          "internalType": "uint256",
          "name": "hashrate",
          "type": "uint256"
        },
        {
          "indexed": false,
          "internalType": "uint256",
          "name": "reward",
          "type": "uint256"
        },
        {
          "indexed": false,
          "internalType": "uint256",
          "name": "timestamp",
          "type": "uint256"
        }
      ],
      "name": "OracleUpdate",
      "type": "event"
    },
    {
      "anonymous": false,
      "inputs": [
        {
          "indexed": true,
          "internalType": "bytes32",
          "name": "role",
          "type": "bytes32"
        },
        {
          "indexed": true,
          "internalType": "bytes32",
          "name": "previousAdminRole",
          "type": "bytes32"
        },
        {
          "indexed": true,
          "internalType": "bytes32",
          "name": "newAdminRole",
          "type": "bytes32"
        }
      ],
      "name": "RoleAdminChanged",
      "type": "event"
    },
    {
      "anonymous": false,
      "inputs": [
        {
          "indexed": true,
          "internalType": "bytes32",
          "name": "role",
          "type": "bytes32"
        },
        {
          "indexed": true,
          "internalType": "address",
          "name": "account",
          "type": "address"
        },
        {
          "indexed": true,
          "internalType": "address",
          "name": "sender",
          "type": "address"
        }
      ],
      "name": "RoleGranted",
      "type": "event"
    },
    {
      "anonymous": false,
      "inputs": [
        {
          "indexed": true,
          "internalType": "bytes32",
          "name": "role",
          "type": "bytes32"
        },
        {
          "indexed": true,
          "internalType": "address",
          "name": "account",
          "type": "address"
        },
        {
          "indexed": true,
          "internalType": "address",
          "name": "sender",
          "type": "address"
        }
      ],
      "name": "RoleRevoked",
      "type": "event"
    },
    {
      "inputs": [],
      "name": "DEFAULT_ADMIN_ROLE",
      "outputs": [
        {
          "internalType": "bytes32",
          "name": "",
          "type": "bytes32"
        }
      ],
      "stateMutability": "view",
      "type": "function"
    },
    {
      "inputs": [],
      "name": "PUBLISHER_ROLE",
      "outputs": [
        {
          "internalType": "bytes32",
          "name": "",
          "type": "bytes32"
        }
      ],
      "stateMutability": "view",
      "type": "function"
    },
    {
      "inputs": [
        {
          "internalType": "uint256",
          "name": "_referenceDay",
          "type": "uint256"
        }
      ],
      "name": "get",
      "outputs": [
        {
          "internalType": "uint256",
          "name": "referenceDay",
          "type": "uint256"
        },
        {
          "internalType": "uint256",
          "name": "referenceBlock",
          "type": "uint256"
        },
        {
          "internalType": "uint256",
          "name": "hashrate",
          "type": "uint256"
        },
        {
          "internalType": "uint256",
          "name": "reward",
          "type": "uint256"
        },
        {
          "internalType": "uint256",
          "name": "timestamp",
          "type": "uint256"
        }
      ],
      "stateMutability": "view",
      "type": "function"
    },
    {
      "inputs": [
        {
          "internalType": "bytes32",
          "name": "role",
          "type": "bytes32"
        }
      ],
      "name": "getRoleAdmin",
      "outputs": [
        {
          "internalType": "bytes32",
          "name": "",
          "type": "bytes32"
        }
      ],
      "stateMutability": "view",
      "type": "function"
    },
    {
      "inputs": [
        {
          "internalType": "bytes32",
          "name": "role",
          "type": "bytes32"
        },
        {
          "internalType": "address",
          "name": "account",
          "type": "address"
        }
      ],
      "name": "grantRole",
      "outputs": [],
      "stateMutability": "nonpayable",
      "type": "function"
    },
    {
      "inputs": [
        {
          "internalType": "bytes32",
          "name": "role",
          "type": "bytes32"
        },
        {
          "internalType": "address",
          "name": "account",
          "type": "address"
        }
      ],
      "name": "hasRole",
      "outputs": [
        {
          "internalType": "bool",
          "name": "",
          "type": "bool"
        }
      ],
      "stateMutability": "view",
      "type": "function"
    },
    {
      "inputs": [
        {
          "internalType": "uint256",
          "name": "",
          "type": "uint256"
        }
      ],
      "name": "index",
      "outputs": [
        {
          "internalType": "uint256",
          "name": "referenceBlock",
          "type": "uint256"
        },
        {
          "internalType": "uint256",
          "name": "hashrate",
          "type": "uint256"
        },
        {
          "internalType": "uint256",
          "name": "reward",
          "type": "uint256"
        },
        {
          "internalType": "uint256",
          "name": "timestamp",
          "type": "uint256"
        }
      ],
      "stateMutability": "view",
      "type": "function"
    },
    {
      "inputs": [
        {
          "internalType": "uint256",
          "name": "_referenceDay",
          "type": "uint256"
        }
      ],
      "name": "isDayIndexed",
      "outputs": [
        {
          "internalType": "bool",
          "name": "",
          "type": "bool"
        }
      ],
      "stateMutability": "view",
      "type": "function"
    },
    {
      "inputs": [
        {
          "internalType": "bytes32",
          "name": "role",
          "type": "bytes32"
        },
        {
          "internalType": "address",
          "name": "account",
          "type": "address"
        }
      ],
      "name": "renounceRole",
      "outputs": [],
      "stateMutability": "nonpayable",
      "type": "function"
    },
    {
      "inputs": [
        {
          "internalType": "bytes32",
          "name": "role",
          "type": "bytes32"
        },
        {
          "internalType": "address",
          "name": "account",
          "type": "address"
        }
      ],
      "name": "revokeRole",
      "outputs": [],
      "stateMutability": "nonpayable",
      "type": "function"
    },
    {
      "inputs": [
        {
          "internalType": "bytes4",
          "name": "interfaceId",
          "type": "bytes4"
        }
      ],
      "name": "supportsInterface",
      "outputs": [
        {
          "internalType": "bool",
          "name": "",
          "type": "bool"
        }
      ],
      "stateMutability": "view",
      "type": "function"
    },
    {
      "inputs": [
        {
          "internalType": "uint256",
          "name": "_referenceDay",
          "type": "uint256"
        },
        {
          "internalType": "uint256",
          "name": "_referenceBlock",
          "type": "uint256"
        },
        {
          "internalType": "uint256",
          "name": "_hashrate",
          "type": "uint256"
        },
        {
          "internalType": "uint256",
          "name": "_reward",
          "type": "uint256"
        },
        {
          "internalType": "bytes",
          "name": "signature",
          "type": "bytes"
        }
      ],
      "name": "updateIndex",
      "outputs": [
        {
          "internalType": "bool",
          "name": "success",
          "type": "bool"
        }
      ],
      "stateMutability": "nonpayable",
      "type": "function"
    }
  ],
  "bytecode": "0x608060405234801561001057600080fd5b5061003b7f0ac90c257048ef1c3e387c26d4a99bde06894efbcbff862dc1885c3a9319308a3361004b565b61004660003361004b565b61010b565b6100558282610059565b5050565b61006382826100de565b610055576000828152602081815260408083206001600160a01b03851684529091529020805460ff1916600117905561009a610107565b6001600160a01b0316816001600160a01b0316837f2f8788117e7eff1d82e926ec794901d17c78024a50270940304540a733656f0d60405160405180910390a45050565b6000918252602082815260408084206001600160a01b0393909316845291905290205460ff1690565b3390565b6110948061011a6000396000f3fe608060405234801561001057600080fd5b50600436106100b45760003560e01c80639507d39a116100715780639507d39a14610160578063a217fddf14610184578063b0d1e6981461018c578063d547741f1461019f578063d8f4b6fd146101b2578063ea7b7b0c146101ba576100b4565b806301ffc9a7146100b9578063248a9ca3146100e25780632f2ff15d14610102578063335932fc1461011757806336568abe1461013a57806391d148541461014d575b600080fd5b6100cc6100c7366004610b03565b6101cd565b6040516100d99190610c9b565b60405180910390f35b6100f56100f0366004610ab1565b6101f8565b6040516100d99190610ca6565b610115610110366004610ac9565b61020d565b005b61012a610125366004610ab1565b610236565b6040516100d99493929190610f53565b610115610148366004610ac9565b61025e565b6100cc61015b366004610ac9565b6102ad565b61017361016e366004610ab1565b6102d6565b6040516100d9959493929190610f6e565b6100f561035a565b6100cc61019a366004610b2b565b61035f565b6101156101ad366004610ac9565b6104eb565b6100f561050a565b6100cc6101c8366004610ab1565b61052e565b60006001600160e01b03198216637965db0b60e01b14806101f257506101f282610545565b92915050565b60009081526020819052604090206001015490565b610216826101f8565b6102278161022261055e565b610562565b61023183836105c6565b505050565b6001602081905260009182526040909120805491810154600282015460039092015490919084565b61026661055e565b6001600160a01b0316816001600160a01b03161461029f5760405162461bcd60e51b815260040161029690610eee565b60405180910390fd5b6102a9828261064b565b5050565b6000918252602082815260408084206001600160a01b0393909316845291905290205460ff1690565b60008181526001602081815260408084208151608081018352815481529381015492840192909252600282015490830152600301546060820181905282918291829182916103365760405162461bcd60e51b815260040161029690610dda565b80516020820151604083015160609093015198999198909750919550909350915050565b600081565b600061038b7f0ac90c257048ef1c3e387c26d4a99bde06894efbcbff862dc1885c3a9319308a336102ad565b6103a75760405162461bcd60e51b815260040161029690610e75565b6000868686866040516020016103c09493929190610f53565b604051602081830303815290604052805190602001206040516020016103e69190610bf5565b60405160208183030381529060405280519060200120905061042c7f0ac90c257048ef1c3e387c26d4a99bde06894efbcbff862dc1885c3a9319308a61015b83866106ce565b6104485760405162461bcd60e51b815260040161029690610e08565b600087815260016020526040902060030154156104775760405162461bcd60e51b815260040161029690610da3565b6000878152600160208190526040918290204260038201819055600282018890559181018890558890559051879189917fd6830e63bb637542d836b7e0c83b3f7f93ec3a7aa07ecbdd5e4be539ca8baded916104d6918a918a91610f3d565b60405180910390a35060019695505050505050565b6104f4826101f8565b6105008161022261055e565b610231838361064b565b7f0ac90c257048ef1c3e387c26d4a99bde06894efbcbff862dc1885c3a9319308a81565b600090815260016020526040902060030154151590565b6001600160e01b031981166301ffc9a760e01b14919050565b3390565b61056c82826102ad565b6102a957610584816001600160a01b03166014610719565b61058f836020610719565b6040516020016105a0929190610c26565b60408051601f198184030181529082905262461bcd60e51b825261029691600401610ccd565b6105d082826102ad565b6102a9576000828152602081815260408083206001600160a01b03851684529091529020805460ff1916600117905561060761055e565b6001600160a01b0316816001600160a01b0316837f2f8788117e7eff1d82e926ec794901d17c78024a50270940304540a733656f0d60405160405180910390a45050565b61065582826102ad565b156102a9576000828152602081815260408083206001600160a01b03851684529091529020805460ff1916905561068a61055e565b6001600160a01b0316816001600160a01b0316837ff6391f5c32d9c69d2a47ea670b442974b53935d1edc7fd64eb21e047a839171b60405160405180910390a45050565b600081516041146106f15760405162461bcd60e51b815260040161029690610d6c565b60208201516040830151606084015160001a61070f868285856108d2565b9695505050505050565b60606000610728836002610fa9565b610733906002610f91565b67ffffffffffffffff81111561075957634e487b7160e01b600052604160045260246000fd5b6040519080825280601f01601f191660200182016040528015610783576020820181803683370190505b509050600360fc1b816000815181106107ac57634e487b7160e01b600052603260045260246000fd5b60200101906001600160f81b031916908160001a905350600f60fb1b816001815181106107e957634e487b7160e01b600052603260045260246000fd5b60200101906001600160f81b031916908160001a905350600061080d846002610fa9565b610818906001610f91565b90505b60018111156108ac576f181899199a1a9b1b9c1cb0b131b232b360811b85600f166010811061085a57634e487b7160e01b600052603260045260246000fd5b1a60f81b82828151811061087e57634e487b7160e01b600052603260045260246000fd5b60200101906001600160f81b031916908160001a90535060049490941c936108a58161101b565b905061081b565b5083156108cb5760405162461bcd60e51b815260040161029690610d37565b9392505050565b60007f7fffffffffffffffffffffffffffffff5d576e7357a4501ddfe92f46681b20a08211156109145760405162461bcd60e51b815260040161029690610e33565b6000601e8560ff1611156109cf5761092d600486610fc8565b60ff16601b148061094b5750610944600486610fc8565b60ff16601c145b6109675760405162461bcd60e51b815260040161029690610eac565b600161097287610a81565b61097d600488610fc8565b86866040516000815260200160405260405161099c9493929190610caf565b6020604051602081039080840390855afa1580156109be573d6000803e3d6000fd5b505050602060405103519050610a52565b8460ff16601b14806109e457508460ff16601c145b610a005760405162461bcd60e51b815260040161029690610eac565b60018686868660405160008152602001604052604051610a239493929190610caf565b6020604051602081039080840390855afa158015610a45573d6000803e3d6000fd5b5050506020604051035190505b6001600160a01b038116610a785760405162461bcd60e51b815260040161029690610d00565b95945050505050565b600081604051602001610a949190610bf5565b604051602081830303815290604052805190602001209050919050565b600060208284031215610ac2578081fd5b5035919050565b60008060408385031215610adb578081fd5b8235915060208301356001600160a01b0381168114610af8578182fd5b809150509250929050565b600060208284031215610b14578081fd5b81356001600160e01b0319811681146108cb578182fd5b600080600080600060a08688031215610b42578081fd5b8535945060208087013594506040870135935060608701359250608087013567ffffffffffffffff80821115610b76578384fd5b818901915089601f830112610b89578384fd5b813581811115610b9b57610b9b611048565b604051601f8201601f1916810185018381118282101715610bbe57610bbe611048565b60405281815283820185018c1015610bd4578586fd5b81858501868301378585838301015280955050505050509295509295909350565b7f19457468657265756d205369676e6564204d6573736167653a0a3332000000008152601c810191909152603c0190565b60007f416363657373436f6e74726f6c3a206163636f756e742000000000000000000082528351610c5e816017850160208801610feb565b7001034b99036b4b9b9b4b733903937b6329607d1b6017918401918201528351610c8f816028840160208801610feb565b01602801949350505050565b901515815260200190565b90815260200190565b93845260ff9290921660208401526040830152606082015260800190565b6000602082528251806020840152610cec816040850160208701610feb565b601f01601f19169190910160400192915050565b60208082526018908201527f45434453413a20696e76616c6964207369676e61747572650000000000000000604082015260600190565b6020808252818101527f537472696e67733a20686578206c656e67746820696e73756666696369656e74604082015260600190565b6020808252601f908201527f45434453413a20696e76616c6964207369676e6174757265206c656e67746800604082015260600190565b6020808252601e908201527f496e666f726d6174696f6e2063616e6e6f7420626520757064617465642e0000604082015260600190565b60208082526014908201527311185d19481b9bdd081e595d081a5b99195e195960621b604082015260600190565b602080825260119082015270496e76616c6964207369676e617475726560781b604082015260600190565b60208082526022908201527f45434453413a20696e76616c6964207369676e6174757265202773272076616c604082015261756560f01b606082015260800190565b6020808252601e908201527f557064617465206e6f7420616c6c6f77656420746f2065766572796f6e650000604082015260600190565b60208082526022908201527f45434453413a20696e76616c6964207369676e6174757265202776272076616c604082015261756560f01b606082015260800190565b6020808252602f908201527f416363657373436f6e74726f6c3a2063616e206f6e6c792072656e6f756e636560408201526e103937b632b9903337b91039b2b63360891b606082015260800190565b9283526020830191909152604082015260600190565b93845260208401929092526040830152606082015260800190565b948552602085019390935260408401919091526060830152608082015260a00190565b60008219821115610fa457610fa4611032565b500190565b6000816000190483118215151615610fc357610fc3611032565b500290565b600060ff821660ff841680821015610fe257610fe2611032565b90039392505050565b60005b83811015611006578181015183820152602001610fee565b83811115611015576000848401525b50505050565b60008161102a5761102a611032565b506000190190565b634e487b7160e01b600052601160045260246000fd5b634e487b7160e01b600052604160045260246000fdfea264697066735822122025bb3a3b2e35399a94032ed81524687480faee7c12195e528ced3bf9d4fb3d1a64736f6c63430008000033",
  "linkReferences": {},
  "deployedLinkReferences": {}
}