{
  "_format": "hh-sol-artifact-1",
  "contractName": "Oracle",
  "sourceName": "contracts/Oracle.sol",
  "abi": [
    {
      "inputs": [
        {
          "internalType": "string",
          "name": "_miningPool",
          "type": "string"
        }
      ],
      "stateMutability": "nonpayable",
      "type": "constructor"
    },
    {
      "anonymous": false,
      "inputs": [
        {
          "indexed": false,
          "internalType": "address",
          "name": "sands",
          "type": "address"
        },
        {
          "indexed": false,
          "internalType": "uint256",
          "name": "due",
          "type": "uint256"
        },
        {
          "indexed": false,
          "internalType": "uint256",
          "name": "lastDueFulfilled",
          "type": "uint256"
        },
        {
          "indexed": false,
          "internalType": "uint256",
          "name": "balance",
          "type": "uint256"
        },
        {
          "indexed": false,
          "internalType": "uint256",
          "name": "updated",
          "type": "uint256"
        },
        {
          "indexed": false,
          "internalType": "uint256",
          "name": "minerHashrate",
          "type": "uint256"
        },
        {
          "indexed": false,
          "internalType": "uint256",
          "name": "minerReward",
          "type": "uint256"
        },
        {
          "indexed": false,
          "internalType": "uint256",
          "name": "poolHashrate",
          "type": "uint256"
        },
        {
          "indexed": false,
          "internalType": "uint256",
          "name": "poolReward",
          "type": "uint256"
        },
        {
          "indexed": false,
          "internalType": "uint8",
          "name": "day",
          "type": "uint8"
        },
        {
          "indexed": false,
          "internalType": "bool",
          "name": "defaulted",
          "type": "bool"
        }
      ],
      "name": "MinerStatsUpdated",
      "type": "event"
    },
    {
      "anonymous": false,
      "inputs": [
        {
          "indexed": true,
          "internalType": "bytes32",
          "name": "role",
          "type": "bytes32"
        },
        {
          "indexed": true,
          "internalType": "bytes32",
          "name": "previousAdminRole",
          "type": "bytes32"
        },
        {
          "indexed": true,
          "internalType": "bytes32",
          "name": "newAdminRole",
          "type": "bytes32"
        }
      ],
      "name": "RoleAdminChanged",
      "type": "event"
    },
    {
      "anonymous": false,
      "inputs": [
        {
          "indexed": true,
          "internalType": "bytes32",
          "name": "role",
          "type": "bytes32"
        },
        {
          "indexed": true,
          "internalType": "address",
          "name": "account",
          "type": "address"
        },
        {
          "indexed": true,
          "internalType": "address",
          "name": "sender",
          "type": "address"
        }
      ],
      "name": "RoleGranted",
      "type": "event"
    },
    {
      "anonymous": false,
      "inputs": [
        {
          "indexed": true,
          "internalType": "bytes32",
          "name": "role",
          "type": "bytes32"
        },
        {
          "indexed": true,
          "internalType": "address",
          "name": "account",
          "type": "address"
        },
        {
          "indexed": true,
          "internalType": "address",
          "name": "sender",
          "type": "address"
        }
      ],
      "name": "RoleRevoked",
      "type": "event"
    },
    {
      "inputs": [],
      "name": "DEFAULT_ADMIN_ROLE",
      "outputs": [
        {
          "internalType": "bytes32",
          "name": "",
          "type": "bytes32"
        }
      ],
      "stateMutability": "view",
      "type": "function"
    },
    {
      "inputs": [],
      "name": "PUBLISHER_ROLE",
      "outputs": [
        {
          "internalType": "bytes32",
          "name": "",
          "type": "bytes32"
        }
      ],
      "stateMutability": "view",
      "type": "function"
    },
    {
      "inputs": [
        {
          "internalType": "bytes32",
          "name": "role",
          "type": "bytes32"
        }
      ],
      "name": "getRoleAdmin",
      "outputs": [
        {
          "internalType": "bytes32",
          "name": "",
          "type": "bytes32"
        }
      ],
      "stateMutability": "view",
      "type": "function"
    },
    {
      "inputs": [
        {
          "internalType": "address",
          "name": "sands",
          "type": "address"
        }
      ],
      "name": "getStats",
      "outputs": [
        {
          "internalType": "uint256",
          "name": "due",
          "type": "uint256"
        },
        {
          "internalType": "uint256",
          "name": "lastDueFulfilled",
          "type": "uint256"
        },
        {
          "internalType": "uint64",
          "name": "day",
          "type": "uint64"
        },
        {
          "internalType": "bool",
          "name": "defaulted",
          "type": "bool"
        }
      ],
      "stateMutability": "view",
      "type": "function"
    },
    {
      "inputs": [
        {
          "internalType": "bytes32",
          "name": "role",
          "type": "bytes32"
        },
        {
          "internalType": "address",
          "name": "account",
          "type": "address"
        }
      ],
      "name": "grantRole",
      "outputs": [],
      "stateMutability": "nonpayable",
      "type": "function"
    },
    {
      "inputs": [
        {
          "internalType": "bytes32",
          "name": "role",
          "type": "bytes32"
        },
        {
          "internalType": "address",
          "name": "account",
          "type": "address"
        }
      ],
      "name": "hasRole",
      "outputs": [
        {
          "internalType": "bool",
          "name": "",
          "type": "bool"
        }
      ],
      "stateMutability": "view",
      "type": "function"
    },
    {
      "inputs": [
        {
          "internalType": "address",
          "name": "",
          "type": "address"
        }
      ],
      "name": "miner",
      "outputs": [
        {
          "internalType": "address",
          "name": "sands",
          "type": "address"
        },
        {
          "internalType": "uint256",
          "name": "due",
          "type": "uint256"
        },
        {
          "internalType": "uint256",
          "name": "lastDueFulfilled",
          "type": "uint256"
        },
        {
          "internalType": "uint256",
          "name": "updated",
          "type": "uint256"
        },
        {
          "internalType": "uint8",
          "name": "day",
          "type": "uint8"
        },
        {
          "internalType": "bool",
          "name": "defaulted",
          "type": "bool"
        }
      ],
      "stateMutability": "view",
      "type": "function"
    },
    {
      "inputs": [],
      "name": "miningPool",
      "outputs": [
        {
          "internalType": "string",
          "name": "",
          "type": "string"
        }
      ],
      "stateMutability": "view",
      "type": "function"
    },
    {
      "inputs": [
        {
          "internalType": "bytes32",
          "name": "role",
          "type": "bytes32"
        },
        {
          "internalType": "address",
          "name": "account",
          "type": "address"
        }
      ],
      "name": "renounceRole",
      "outputs": [],
      "stateMutability": "nonpayable",
      "type": "function"
    },
    {
      "inputs": [
        {
          "internalType": "bytes32",
          "name": "role",
          "type": "bytes32"
        },
        {
          "internalType": "address",
          "name": "account",
          "type": "address"
        }
      ],
      "name": "revokeRole",
      "outputs": [],
      "stateMutability": "nonpayable",
      "type": "function"
    },
    {
      "inputs": [
        {
          "internalType": "bytes4",
          "name": "interfaceId",
          "type": "bytes4"
        }
      ],
      "name": "supportsInterface",
      "outputs": [
        {
          "internalType": "bool",
          "name": "",
          "type": "bool"
        }
      ],
      "stateMutability": "view",
      "type": "function"
    },
    {
      "inputs": [
        {
          "internalType": "address",
          "name": "sands",
          "type": "address"
        },
        {
          "internalType": "uint256",
          "name": "minerHashrate",
          "type": "uint256"
        },
        {
          "internalType": "uint256",
          "name": "minerReward",
          "type": "uint256"
        },
        {
          "internalType": "uint256",
          "name": "poolHashrate",
          "type": "uint256"
        },
        {
          "internalType": "uint256",
          "name": "poolReward",
          "type": "uint256"
        },
        {
          "internalType": "uint256",
          "name": "timestamp",
          "type": "uint256"
        },
        {
          "internalType": "bytes",
          "name": "signature",
          "type": "bytes"
        }
      ],
      "name": "updateMinerStats",
      "outputs": [
        {
          "internalType": "bool",
          "name": "success",
          "type": "bool"
        }
      ],
      "stateMutability": "nonpayable",
      "type": "function"
    }
  ],
  "bytecode": "0x60806040523480156200001157600080fd5b5060405162001c3038038062001c308339810160408190526200003491620001ea565b80516200004990600190602084019062000144565b50620000767f0ac90c257048ef1c3e387c26d4a99bde06894efbcbff862dc1885c3a9319308a336200007d565b506200030c565b6200008982826200008d565b5050565b62000099828262000117565b62000089576000828152602081815260408083206001600160a01b03851684529091529020805460ff19166001179055620000d362000140565b6001600160a01b0316816001600160a01b0316837f2f8788117e7eff1d82e926ec794901d17c78024a50270940304540a733656f0d60405160405180910390a45050565b6000918252602082815260408084206001600160a01b0393909316845291905290205460ff1690565b3390565b8280546200015290620002b9565b90600052602060002090601f016020900481019282620001765760008555620001c1565b82601f106200019157805160ff1916838001178555620001c1565b82800160010185558215620001c1579182015b82811115620001c1578251825591602001919060010190620001a4565b50620001cf929150620001d3565b5090565b5b80821115620001cf5760008155600101620001d4565b60006020808385031215620001fd578182fd5b82516001600160401b038082111562000214578384fd5b818501915085601f83011262000228578384fd5b8151818111156200023d576200023d620002f6565b604051601f8201601f1916810185018381118282101715620002635762000263620002f6565b60405281815283820185018810156200027a578586fd5b8592505b818310156200029d57838301850151818401860152918401916200027e565b81831115620002ae57858583830101525b979650505050505050565b600281046001821680620002ce57607f821691505b60208210811415620002f057634e487b7160e01b600052602260045260246000fd5b50919050565b634e487b7160e01b600052604160045260246000fd5b611914806200031c6000396000f3fe608060405234801561001057600080fd5b50600436106100b45760003560e01c8063a217fddf11610071578063a217fddf14610152578063c23f85d61461015a578063d45a7e2e1461017d578063d547741f146101a2578063d8f4b6fd146101b5578063e01aa06e146101bd576100b4565b806301ffc9a7146100b9578063248a9ca3146100e25780632f2ff15d1461010257806336568abe14610117578063733975971461012a57806391d148541461013f575b600080fd5b6100cc6100c73660046112ac565b6101d0565b6040516100d9919061145b565b60405180910390f35b6100f56100f0366004611269565b6101fd565b6040516100d99190611466565b610115610110366004611281565b610212565b005b610115610125366004611281565b61023b565b61013261028a565b6040516100d9919061148d565b6100cc61014d366004611281565b610318565b6100f5610341565b61016d61016836600461116b565b610346565b6040516100d99493929190611773565b61019061018b36600461116b565b6103bc565b6040516100d996959493929190611423565b6101156101b0366004611281565b610401565b6100f5610420565b6100cc6101cb366004611185565b610444565b60006001600160e01b03198216637965db0b60e01b14806101f557506101f582610a6c565b90505b919050565b60009081526020819052604090206001015490565b61021b826101fd565b61022c81610227610a85565b610a89565b6102368383610aed565b505050565b610243610a85565b6001600160a01b0316816001600160a01b03161461027c5760405162461bcd60e51b815260040161027390611724565b60405180910390fd5b6102868282610b72565b5050565b6001805461029790611877565b80601f01602080910402602001604051908101604052809291908181526020018280546102c390611877565b80156103105780601f106102e557610100808354040283529160200191610310565b820191906000526020600020905b8154815290600101906020018083116102f357829003601f168201915b505050505081565b6000918252602082815260408084206001600160a01b0393909316845291905290205460ff1690565b600081565b6001600160a01b03908116600090815260026020818152604092839020835160c081018552815490951685526001810154918501829052918201549284018390526003820154606085015260049091015460ff8082166080860181905261010090920416151560a0909401849052909391929091565b6002602081905260009182526040909120805460018201549282015460038301546004909301546001600160a01b039092169392909160ff8082169161010090041686565b61040a826101fd565b61041681610227610a85565b6102368383610b72565b7f0ac90c257048ef1c3e387c26d4a99bde06894efbcbff862dc1885c3a9319308a81565b60006104707f0ac90c257048ef1c3e387c26d4a99bde06894efbcbff862dc1885c3a9319308a33610318565b61048c5760405162461bcd60e51b815260040161027390611658565b60008888888888886040516020016104a996959493929190611392565b604051602081830303815290604052805190602001206040516020016104cf91906112ec565b60405160208183030381529060405280519060200120905060006104f38285610bf5565b905061051f7f0ac90c257048ef1c3e387c26d4a99bde06894efbcbff862dc1885c3a9319308a82610318565b61053b5760405162461bcd60e51b8152600401610273906115eb565b6001600160a01b03808b16600090815260026020818152604092839020835160c08101855281549095168552600181015491850191909152908101549183019190915260038101546060830181905260049091015460ff808216608085015261010090910416151560a083015286906105b7906201518061179a565b11156105d55760405162461bcd60e51b8152600401610273906116d1565b8a6001600160a01b031663ef78d4fd6040518163ffffffff1660e01b815260040160206040518083038186803b15801561060e57600080fd5b505afa158015610622573d6000803e3d6000fd5b505050506040513d601f19601f8201168201806040525081019061064691906112d4565b816080015160ff161061081d578a6001600160a01b031631816020015111156106f957600160a082018181526001600160a01b038d8116600090815260026020818152604092839020875181546001600160a01b03191695169490941784558601518386015590850151908201556060840151600382015560809093015160049093018054915160ff1990921660ff9094169390931761ff00191661010091151591909102179091559250610a61915050565b80602001518b6001600160a01b0316311061080557600060a082015260808101516107259060016117b2565b816080019060ff16908160ff1681525050806020015181604001818152505080600260008d6001600160a01b03166001600160a01b0316815260200190815260200160002060008201518160000160006101000a8154816001600160a01b0302191690836001600160a01b0316021790555060208201518160010155604082015181600201556060820151816003015560808201518160040160006101000a81548160ff021916908360ff16021790555060a08201518160040160016101000a81548160ff02191690831515021790555090505060019350505050610a61565b60405162461bcd60e51b81526004016102739061159a565b8060a001511561083f5760405162461bcd60e51b815260040161027390611563565b8a6001600160a01b0316318160200151111561086157600160a0820152610935565b6000808c6001600160a01b03166369b0f56e6040518163ffffffff1660e01b815260040160206040518083038186803b15801561089d57600080fd5b505afa1580156108b1573d6000803e3d6000fd5b505050506040513d601f19601f820116820180604052508101906108d591906112d4565b9050808c106108f0576108e9818c8e610c40565b91506108fe565b6108fb818a8c610c40565b91505b60208301516040840181905261091590839061179a565b6020840152608083015161092a9060016117b2565b60ff16608084015250505b8581606001818152505080600260008d6001600160a01b03166001600160a01b0316815260200190815260200160002060008201518160000160006101000a8154816001600160a01b0302191690836001600160a01b0316021790555060208201518160010155604082015181600201556060820151816003015560808201518160040160006101000a81548160ff021916908360ff16021790555060a08201518160040160016101000a81548160ff0219169083151502179055509050507f717f58699f8365f4dcc9d701b9e22082d260b8fd71dd11f956ae7a274b28d0438b826020015183604001518e6001600160a01b0316318a8f8f8f8f8a608001518b60a00151604051610a519b9a999897969594939291906113c5565b60405180910390a1600193505050505b979650505050505050565b6001600160e01b031981166301ffc9a760e01b14919050565b3390565b610a938282610318565b61028657610aab816001600160a01b03166014610dc3565b610ab6836020610dc3565b604051602001610ac792919061131d565b60408051601f198184030181529082905262461bcd60e51b82526102739160040161148d565b610af78282610318565b610286576000828152602081815260408083206001600160a01b03851684529091529020805460ff19166001179055610b2e610a85565b6001600160a01b0316816001600160a01b0316837f2f8788117e7eff1d82e926ec794901d17c78024a50270940304540a733656f0d60405160405180910390a45050565b610b7c8282610318565b15610286576000828152602081815260408083206001600160a01b03851684529091529020805460ff19169055610bb1610a85565b6001600160a01b0316816001600160a01b0316837ff6391f5c32d9c69d2a47ea670b442974b53935d1edc7fd64eb21e047a839171b60405160405180910390a45050565b60008151604114610c185760405162461bcd60e51b81526004016102739061152c565b60208201516040830151606084015160001a610c3686828585610f75565b9695505050505050565b6000808060001985870986860292508281109083900303905080610c765760008411610c6b57600080fd5b508290049050610dbc565b808411610c8257600080fd5b600084868809808403938111909203919050600085610ca3816000196117f6565b610cae90600161179a565b16958690049593849004936000819003046001019050610cce81846117d7565b909317926000610cdf8760036117d7565b6002189050610cee81886117d7565b610cf99060026117f6565b610d0390826117d7565b9050610d0f81886117d7565b610d1a9060026117f6565b610d2490826117d7565b9050610d3081886117d7565b610d3b9060026117f6565b610d4590826117d7565b9050610d5181886117d7565b610d5c9060026117f6565b610d6690826117d7565b9050610d7281886117d7565b610d7d9060026117f6565b610d8790826117d7565b9050610d9381886117d7565b610d9e9060026117f6565b610da890826117d7565b9050610db481866117d7565b955050505050505b9392505050565b60606000610dd28360026117d7565b610ddd90600261179a565b67ffffffffffffffff811115610e0357634e487b7160e01b600052604160045260246000fd5b6040519080825280601f01601f191660200182016040528015610e2d576020820181803683370190505b509050600360fc1b81600081518110610e5657634e487b7160e01b600052603260045260246000fd5b60200101906001600160f81b031916908160001a905350600f60fb1b81600181518110610e9357634e487b7160e01b600052603260045260246000fd5b60200101906001600160f81b031916908160001a9053506000610eb78460026117d7565b610ec290600161179a565b90505b6001811115610f56576f181899199a1a9b1b9c1cb0b131b232b360811b85600f1660108110610f0457634e487b7160e01b600052603260045260246000fd5b1a60f81b828281518110610f2857634e487b7160e01b600052603260045260246000fd5b60200101906001600160f81b031916908160001a90535060049490941c93610f4f81611860565b9050610ec5565b508315610dbc5760405162461bcd60e51b8152600401610273906114f7565b60007f7fffffffffffffffffffffffffffffff5d576e7357a4501ddfe92f46681b20a0821115610fb75760405162461bcd60e51b815260040161027390611616565b6000601e8560ff16111561107257610fd060048661180d565b60ff16601b1480610fee5750610fe760048661180d565b60ff16601c145b61100a5760405162461bcd60e51b81526004016102739061168f565b600161101587611124565b61102060048861180d565b86866040516000815260200160405260405161103f949392919061146f565b6020604051602081039080840390855afa158015611061573d6000803e3d6000fd5b5050506020604051035190506110f5565b8460ff16601b148061108757508460ff16601c145b6110a35760405162461bcd60e51b81526004016102739061168f565b600186868686604051600081526020016040526040516110c6949392919061146f565b6020604051602081039080840390855afa1580156110e8573d6000803e3d6000fd5b5050506020604051035190505b6001600160a01b03811661111b5760405162461bcd60e51b8152600401610273906114c0565b95945050505050565b60008160405160200161113791906112ec565b604051602081830303815290604052805190602001209050919050565b80356001600160a01b03811681146101f857600080fd5b60006020828403121561117c578081fd5b610dbc82611154565b600080600080600080600060e0888a03121561119f578283fd5b6111a888611154565b9650602080890135965060408901359550606089013594506080890135935060a0890135925060c089013567ffffffffffffffff808211156111e8578384fd5b818b0191508b601f8301126111fb578384fd5b81358181111561120d5761120d6118c8565b604051601f8201601f1916810185018381118282101715611230576112306118c8565b60405281815283820185018e1015611246578586fd5b818585018683013785858383010152809550505050505092959891949750929550565b60006020828403121561127a578081fd5b5035919050565b60008060408385031215611293578182fd5b823591506112a360208401611154565b90509250929050565b6000602082840312156112bd578081fd5b81356001600160e01b031981168114610dbc578182fd5b6000602082840312156112e5578081fd5b5051919050565b7f19457468657265756d205369676e6564204d6573736167653a0a3332000000008152601c810191909152603c0190565b60007f416363657373436f6e74726f6c3a206163636f756e742000000000000000000082528351611355816017850160208801611830565b7001034b99036b4b9b9b4b733903937b6329607d1b6017918401918201528351611386816028840160208801611830565b01602801949350505050565b6001600160a01b03969096168652602086019490945260408501929092526060840152608083015260a082015260c00190565b6001600160a01b039b909b168b5260208b019990995260408a01979097526060890195909552608088019390935260a087019190915260c086015260e085015261010084015260ff1661012083015215156101408201526101600190565b6001600160a01b0396909616865260208601949094526040850192909252606084015260ff166080830152151560a082015260c00190565b901515815260200190565b90815260200190565b93845260ff9290921660208401526040830152606082015260800190565b60006020825282518060208401526114ac816040850160208701611830565b601f01601f19169190910160400192915050565b60208082526018908201527f45434453413a20696e76616c6964207369676e61747572650000000000000000604082015260600190565b6020808252818101527f537472696e67733a20686578206c656e67746820696e73756666696369656e74604082015260600190565b6020808252601f908201527f45434453413a20696e76616c6964207369676e6174757265206c656e67746800604082015260600190565b60208082526018908201527f53616e647320616c7265616479206f6e2064656661756c740000000000000000604082015260600190565b60208082526031908201527f43616e6e6f7420757064617465206f7261636c652c2074686520636f6e7472616040820152706374206973206e6f742072756e6e696e6760781b606082015260800190565b602080825260119082015270496e76616c6964207369676e617475726560781b604082015260600190565b60208082526022908201527f45434453413a20696e76616c6964207369676e6174757265202773272076616c604082015261756560f01b606082015260800190565b6020808252601e908201527f557064617465206e6f7420616c6c6f77656420746f2065766572796f6e650000604082015260600190565b60208082526022908201527f45434453413a20696e76616c6964207369676e6174757265202776272076616c604082015261756560f01b606082015260800190565b60208082526033908201527f43616e6e6f742075706461746520746865204d696e6572205374617473207477604082015272696365206f6e207468652073616d652064617960681b606082015260800190565b6020808252602f908201527f416363657373436f6e74726f6c3a2063616e206f6e6c792072656e6f756e636560408201526e103937b632b9903337b91039b2b63360891b606082015260800190565b938452602084019290925267ffffffffffffffff1660408301521515606082015260800190565b600082198211156117ad576117ad6118b2565b500190565b600060ff821660ff84168060ff038211156117cf576117cf6118b2565b019392505050565b60008160001904831182151516156117f1576117f16118b2565b500290565b600082821015611808576118086118b2565b500390565b600060ff821660ff841680821015611827576118276118b2565b90039392505050565b60005b8381101561184b578181015183820152602001611833565b8381111561185a576000848401525b50505050565b60008161186f5761186f6118b2565b506000190190565b60028104600182168061188b57607f821691505b602082108114156118ac57634e487b7160e01b600052602260045260246000fd5b50919050565b634e487b7160e01b600052601160045260246000fd5b634e487b7160e01b600052604160045260246000fdfea2646970667358221220b23b29ae6d869b3703f48cb9771455b45c2dff3dd890110eb21c63a4d138ba8364736f6c63430008000033",
  "linkReferences": {},
  "deployedLinkReferences": {}
}