{
  "_format": "hh-sol-artifact-1",
  "contractName": "SandsRepoFactory",
  "sourceName": "contracts/SandsRepoFactory.sol",
  "abi": [
    {
      "inputs": [
        {
          "internalType": "address",
          "name": "_masterNative",
          "type": "address"
        },
        {
          "internalType": "address",
          "name": "_masterERC20",
          "type": "address"
        }
      ],
      "stateMutability": "nonpayable",
      "type": "constructor"
    },
    {
      "anonymous": false,
      "inputs": [
        {
          "indexed": true,
          "internalType": "address",
          "name": "minerAddress",
          "type": "address"
        },
        {
          "indexed": true,
          "internalType": "address",
          "name": "contractAddress",
          "type": "address"
        },
        {
          "indexed": false,
          "internalType": "address",
          "name": "erc20TokenAddress",
          "type": "address"
        }
      ],
      "name": "NewSandsRepo",
      "type": "event"
    },
    {
      "anonymous": false,
      "inputs": [
        {
          "indexed": true,
          "internalType": "address",
          "name": "previousOwner",
          "type": "address"
        },
        {
          "indexed": true,
          "internalType": "address",
          "name": "newOwner",
          "type": "address"
        }
      ],
      "name": "OwnershipTransferred",
      "type": "event"
    },
    {
      "inputs": [
        {
          "internalType": "address",
          "name": "erc20TokenAddress",
          "type": "address"
        }
      ],
      "name": "createSandsRepo",
      "outputs": [
        {
          "internalType": "address",
          "name": "",
          "type": "address"
        }
      ],
      "stateMutability": "nonpayable",
      "type": "function"
    },
    {
      "inputs": [
        {
          "internalType": "address",
          "name": "minerAddress",
          "type": "address"
        },
        {
          "internalType": "address",
          "name": "erc20TokenAddress",
          "type": "address"
        }
      ],
      "name": "getDeterministicAddress",
      "outputs": [
        {
          "internalType": "address",
          "name": "",
          "type": "address"
        }
      ],
      "stateMutability": "view",
      "type": "function"
    },
    {
      "inputs": [],
      "name": "masterERC20",
      "outputs": [
        {
          "internalType": "address",
          "name": "",
          "type": "address"
        }
      ],
      "stateMutability": "view",
      "type": "function"
    },
    {
      "inputs": [],
      "name": "masterNative",
      "outputs": [
        {
          "internalType": "address",
          "name": "",
          "type": "address"
        }
      ],
      "stateMutability": "view",
      "type": "function"
    },
    {
      "inputs": [],
      "name": "owner",
      "outputs": [
        {
          "internalType": "address",
          "name": "",
          "type": "address"
        }
      ],
      "stateMutability": "view",
      "type": "function"
    },
    {
      "inputs": [],
      "name": "renounceOwnership",
      "outputs": [],
      "stateMutability": "nonpayable",
      "type": "function"
    },
    {
      "inputs": [
        {
          "internalType": "address",
          "name": "newOwner",
          "type": "address"
        }
      ],
      "name": "transferOwnership",
      "outputs": [],
      "stateMutability": "nonpayable",
      "type": "function"
    }
  ],
  "bytecode": "0x608060405234801561001057600080fd5b5060405161081538038061081583398101604081905261002f916100e0565b61003f61003a610070565b610074565b600180546001600160a01b039384166001600160a01b03199182161790915560028054929093169116179055610112565b3390565b600080546001600160a01b038381166001600160a01b0319831681178455604051919092169283917f8be0079c531659141344cd1fd0a4f28419497f9722a3daafe3b4186f6b6457e09190a35050565b80516001600160a01b03811681146100db57600080fd5b919050565b600080604083850312156100f2578182fd5b6100fb836100c4565b9150610109602084016100c4565b90509250929050565b6106f4806101216000396000f3fe608060405234801561001057600080fd5b506004361061007d5760003560e01c8063983f7f431161005b578063983f7f43146100b2578063ad7f57ec146100c5578063d1d8756c146100d8578063f2fde38b146100e05761007d565b806315bfe3a914610082578063715018a6146100a05780638da5cb5b146100aa575b600080fd5b61008a6100f3565b60405161009791906105b2565b60405180910390f35b6100a8610102565b005b61008a610156565b61008a6100c0366004610580565b610165565b61008a6100d3366004610566565b610209565b61008a610399565b6100a86100ee366004610566565b6103a8565b6002546001600160a01b031681565b61010a610419565b6001600160a01b031661011b610156565b6001600160a01b03161461014a5760405162461bcd60e51b815260040161014190610689565b60405180910390fd5b610154600061041d565b565b6000546001600160a01b031690565b600080838360405160200161017b9291906105c6565b60408051601f198184030181529190528051602090910120905060006001600160a01b0384166101b757506001546001600160a01b03166101c5565b506002546001600160a01b03165b6001600160a01b0381166101eb5760405162461bcd60e51b81526004016101419061065d565b6101fe6001600160a01b0382168361046d565b925050505b92915050565b600080338360405160200161021f9291906105c6565b60408051601f198184030181529190528051602090910120905060006001600160a01b0384166102c85760015461025f906001600160a01b031683610481565b60405163189acdbd60e31b815290915081906001600160a01b0382169063c4d66de8906102909033906004016105b2565b600060405180830381600087803b1580156102aa57600080fd5b505af11580156102be573d6000803e3d6000fd5b5050505050610345565b6002546102de906001600160a01b031683610481565b60405163485cc95560e01b815290915081906001600160a01b0382169063485cc9559061031190339089906004016105c6565b600060405180830381600087803b15801561032b57600080fd5b505af115801561033f573d6000803e3d6000fd5b50505050505b806001600160a01b0316336001600160a01b03167f5d39e2aae608a4bc438b2ca8754f46c53cc39c511450dc453a73c3a44d1bc5548660405161038891906105b2565b60405180910390a39150505b919050565b6001546001600160a01b031681565b6103b0610419565b6001600160a01b03166103c1610156565b6001600160a01b0316146103e75760405162461bcd60e51b815260040161014190610689565b6001600160a01b03811661040d5760405162461bcd60e51b8152600401610141906105e0565b6104168161041d565b50565b3390565b600080546001600160a01b038381166001600160a01b0319831681178455604051919092169283917f8be0079c531659141344cd1fd0a4f28419497f9722a3daafe3b4186f6b6457e09190a35050565b600061047a8383306104f1565b9392505050565b6000604051733d602d80600a3d3981f3363d3d373d3d3d363d7360601b81528360601b60148201526e5af43d82803e903d91602b57fd5bf360881b6028820152826037826000f59150506001600160a01b0381166102035760405162461bcd60e51b815260040161014190610626565b604051733d602d80600a3d3981f3363d3d373d3d3d363d7360601b8152606093841b60148201526f5af43d82803e903d91602b57fd5bf3ff60801b6028820152921b6038830152604c8201526037808220606c830152605591012090565b80356001600160a01b038116811461039457600080fd5b600060208284031215610577578081fd5b61047a8261054f565b60008060408385031215610592578081fd5b61059b8361054f565b91506105a96020840161054f565b90509250929050565b6001600160a01b0391909116815260200190565b6001600160a01b0392831681529116602082015260400190565b60208082526026908201527f4f776e61626c653a206e6577206f776e657220697320746865207a65726f206160408201526564647265737360d01b606082015260800190565b60208082526017908201527f455243313136373a2063726561746532206661696c6564000000000000000000604082015260600190565b6020808252601290820152711b585cdd195c881b5d5cdd081899481cd95d60721b604082015260600190565b6020808252818101527f4f776e61626c653a2063616c6c6572206973206e6f7420746865206f776e657260408201526060019056fea2646970667358221220e3460137dd0bfde8d4ec3f8a97272a63a597c61438b1bb3acf04c03deef3aa4c64736f6c63430008000033",
  "linkReferences": {},
  "deployedLinkReferences": {}
}