{
  "_format": "hh-sol-artifact-1",
  "contractName": "SandsRepoFactory",
  "sourceName": "contracts/SandsRepoFactory.sol",
  "abi": [
    {
      "inputs": [
        {
          "internalType": "address",
          "name": "_masterNative",
          "type": "address"
        },
        {
          "internalType": "address",
          "name": "_masterERC20",
          "type": "address"
        }
      ],
      "stateMutability": "nonpayable",
      "type": "constructor"
    },
    {
      "anonymous": false,
      "inputs": [
        {
          "indexed": true,
          "internalType": "address",
          "name": "minerAddress",
          "type": "address"
        },
        {
          "indexed": true,
          "internalType": "address",
          "name": "contractAddress",
          "type": "address"
        },
        {
          "indexed": false,
          "internalType": "address",
          "name": "erc20TokenAddress",
          "type": "address"
        }
      ],
      "name": "NewHashRepo",
      "type": "event"
    },
    {
      "anonymous": false,
      "inputs": [
        {
          "indexed": true,
          "internalType": "address",
          "name": "previousOwner",
          "type": "address"
        },
        {
          "indexed": true,
          "internalType": "address",
          "name": "newOwner",
          "type": "address"
        }
      ],
      "name": "OwnershipTransferred",
      "type": "event"
    },
    {
      "inputs": [
        {
          "internalType": "address",
          "name": "erc20TokenAddress",
          "type": "address"
        }
      ],
      "name": "createHashRepo",
      "outputs": [
        {
          "internalType": "address",
          "name": "",
          "type": "address"
        }
      ],
      "stateMutability": "nonpayable",
      "type": "function"
    },
    {
      "inputs": [
        {
          "internalType": "address",
          "name": "minerAddress",
          "type": "address"
        },
        {
          "internalType": "address",
          "name": "erc20TokenAddress",
          "type": "address"
        }
      ],
      "name": "getDeterministicAddress",
      "outputs": [
        {
          "internalType": "address",
          "name": "",
          "type": "address"
        }
      ],
      "stateMutability": "view",
      "type": "function"
    },
    {
      "inputs": [],
      "name": "masterERC20",
      "outputs": [
        {
          "internalType": "address",
          "name": "",
          "type": "address"
        }
      ],
      "stateMutability": "view",
      "type": "function"
    },
    {
      "inputs": [],
      "name": "masterNative",
      "outputs": [
        {
          "internalType": "address",
          "name": "",
          "type": "address"
        }
      ],
      "stateMutability": "view",
      "type": "function"
    },
    {
      "inputs": [],
      "name": "owner",
      "outputs": [
        {
          "internalType": "address",
          "name": "",
          "type": "address"
        }
      ],
      "stateMutability": "view",
      "type": "function"
    },
    {
      "inputs": [],
      "name": "renounceOwnership",
      "outputs": [],
      "stateMutability": "nonpayable",
      "type": "function"
    },
    {
      "inputs": [
        {
          "internalType": "address",
          "name": "newOwner",
          "type": "address"
        }
      ],
      "name": "transferOwnership",
      "outputs": [],
      "stateMutability": "nonpayable",
      "type": "function"
    }
  ],
  "bytecode": "0x608060405234801561001057600080fd5b5060405161074f38038061074f83398101604081905261002f916100e0565b61003f61003a610070565b610074565b600180546001600160a01b039384166001600160a01b03199182161790915560028054929093169116179055610112565b3390565b600080546001600160a01b038381166001600160a01b0319831681178455604051919092169283917f8be0079c531659141344cd1fd0a4f28419497f9722a3daafe3b4186f6b6457e09190a35050565b80516001600160a01b03811681146100db57600080fd5b919050565b600080604083850312156100f2578182fd5b6100fb836100c4565b9150610109602084016100c4565b90509250929050565b61062e806101216000396000f3fe608060405234801561001057600080fd5b506004361061007d5760003560e01c80638da5cb5b1161005b5780638da5cb5b146100bd578063983f7f43146100c5578063d1d8756c146100d8578063f2fde38b146100e05761007d565b80630e2814da1461008257806315bfe3a9146100ab578063715018a6146100b3575b600080fd5b6100956100903660046104a0565b6100f3565b6040516100a291906104ec565b60405180910390f35b6100956101bd565b6100bb6101cc565b005b610095610220565b6100956100d33660046104ba565b61022f565b6100956102d3565b6100bb6100ee3660046104a0565b6102e2565b6000803383604051602001610109929190610500565b60408051601f198184030181529190528051602090910120905060006001600160a01b03841661015057600154610149906001600160a01b031683610353565b9050610169565b600254610166906001600160a01b031683610353565b90505b806001600160a01b0316336001600160a01b03167ff5c124794aa73974656644f2c28bf483055fd04333509b493330ebee47f52621866040516101ac91906104ec565b60405180910390a39150505b919050565b6002546001600160a01b031681565b6101d46103c3565b6001600160a01b03166101e5610220565b6001600160a01b0316146102145760405162461bcd60e51b815260040161020b906105c3565b60405180910390fd5b61021e60006103c7565b565b6000546001600160a01b031690565b6000808383604051602001610245929190610500565b60408051601f198184030181529190528051602090910120905060006001600160a01b03841661028157506001546001600160a01b031661028f565b506002546001600160a01b03165b6001600160a01b0381166102b55760405162461bcd60e51b815260040161020b90610597565b6102c86001600160a01b03821683610417565b925050505b92915050565b6001546001600160a01b031681565b6102ea6103c3565b6001600160a01b03166102fb610220565b6001600160a01b0316146103215760405162461bcd60e51b815260040161020b906105c3565b6001600160a01b0381166103475760405162461bcd60e51b815260040161020b9061051a565b610350816103c7565b50565b6000604051733d602d80600a3d3981f3363d3d373d3d3d363d7360601b81528360601b60148201526e5af43d82803e903d91602b57fd5bf360881b6028820152826037826000f59150506001600160a01b0381166102cd5760405162461bcd60e51b815260040161020b90610560565b3390565b600080546001600160a01b038381166001600160a01b0319831681178455604051919092169283917f8be0079c531659141344cd1fd0a4f28419497f9722a3daafe3b4186f6b6457e09190a35050565b600061042483833061042b565b9392505050565b604051733d602d80600a3d3981f3363d3d373d3d3d363d7360601b8152606093841b60148201526f5af43d82803e903d91602b57fd5bf3ff60801b6028820152921b6038830152604c8201526037808220606c830152605591012090565b80356001600160a01b03811681146101b857600080fd5b6000602082840312156104b1578081fd5b61042482610489565b600080604083850312156104cc578081fd5b6104d583610489565b91506104e360208401610489565b90509250929050565b6001600160a01b0391909116815260200190565b6001600160a01b0392831681529116602082015260400190565b60208082526026908201527f4f776e61626c653a206e6577206f776e657220697320746865207a65726f206160408201526564647265737360d01b606082015260800190565b60208082526017908201527f455243313136373a2063726561746532206661696c6564000000000000000000604082015260600190565b6020808252601290820152711b585cdd195c881b5d5cdd081899481cd95d60721b604082015260600190565b6020808252818101527f4f776e61626c653a2063616c6c6572206973206e6f7420746865206f776e657260408201526060019056fea26469706673582212206fd3caa8cbf6f1abfee73ec35087901a8cc1b7ea9fce0ca51e882a37b2092d4464736f6c63430008000033",
  "linkReferences": {},
  "deployedLinkReferences": {}
}